{
  "_format": "hh3-artifact-1",
  "contractName": "CardSynthesis",
  "sourceName": "contracts/CardSynthesis.sol",
  "abi": [
    {
      "inputs": [
        {
          "internalType": "address",
          "name": "_gameToken",
          "type": "address"
        },
        {
          "internalType": "address",
          "name": "_nftCollection",
          "type": "address"
        },
        {
          "internalType": "string",
          "name": "_metadataCID",
          "type": "string"
        },
        {
          "internalType": "uint256[4]",
          "name": "_rarityLimits",
          "type": "uint256[4]"
        }
      ],
      "stateMutability": "nonpayable",
      "type": "constructor"
    },
    {
      "inputs": [],
      "name": "AccessControlBadConfirmation",
      "type": "error"
    },
    {
      "inputs": [
        {
          "internalType": "address",
          "name": "account",
          "type": "address"
        },
        {
          "internalType": "bytes32",
          "name": "neededRole",
          "type": "bytes32"
        }
      ],
      "name": "AccessControlUnauthorizedAccount",
      "type": "error"
    },
    {
      "anonymous": false,
      "inputs": [
        {
          "indexed": true,
          "internalType": "address",
          "name": "user",
          "type": "address"
        },
        {
          "indexed": false,
          "internalType": "uint8",
          "name": "inputRarity",
          "type": "uint8"
        },
        {
          "indexed": false,
          "internalType": "bool",
          "name": "success",
          "type": "bool"
        },
        {
          "indexed": false,
          "internalType": "uint8",
          "name": "outputRarity",
          "type": "uint8"
        },
        {
          "indexed": false,
          "internalType": "uint256",
          "name": "newTokenId",
          "type": "uint256"
        },
        {
          "indexed": false,
          "internalType": "uint256",
          "name": "metadataIndex",
          "type": "uint256"
        }
      ],
      "name": "CardSynthesized",
      "type": "event"
    },
    {
      "anonymous": false,
      "inputs": [
        {
          "indexed": false,
          "internalType": "string",
          "name": "newCID",
          "type": "string"
        }
      ],
      "name": "MetadataCIDUpdated",
      "type": "event"
    },
    {
      "anonymous": false,
      "inputs": [
        {
          "indexed": true,
          "internalType": "uint8",
          "name": "rarity",
          "type": "uint8"
        },
        {
          "indexed": false,
          "internalType": "uint256",
          "name": "amountAdded",
          "type": "uint256"
        }
      ],
      "name": "PoolReplenished",
      "type": "event"
    },
    {
      "anonymous": false,
      "inputs": [
        {
          "indexed": true,
          "internalType": "bytes32",
          "name": "role",
          "type": "bytes32"
        },
        {
          "indexed": true,
          "internalType": "bytes32",
          "name": "previousAdminRole",
          "type": "bytes32"
        },
        {
          "indexed": true,
          "internalType": "bytes32",
          "name": "newAdminRole",
          "type": "bytes32"
        }
      ],
      "name": "RoleAdminChanged",
      "type": "event"
    },
    {
      "anonymous": false,
      "inputs": [
        {
          "indexed": true,
          "internalType": "bytes32",
          "name": "role",
          "type": "bytes32"
        },
        {
          "indexed": true,
          "internalType": "address",
          "name": "account",
          "type": "address"
        },
        {
          "indexed": true,
          "internalType": "address",
          "name": "sender",
          "type": "address"
        }
      ],
      "name": "RoleGranted",
      "type": "event"
    },
    {
      "anonymous": false,
      "inputs": [
        {
          "indexed": true,
          "internalType": "bytes32",
          "name": "role",
          "type": "bytes32"
        },
        {
          "indexed": true,
          "internalType": "address",
          "name": "account",
          "type": "address"
        },
        {
          "indexed": true,
          "internalType": "address",
          "name": "sender",
          "type": "address"
        }
      ],
      "name": "RoleRevoked",
      "type": "event"
    },
    {
      "inputs": [],
      "name": "ADMIN_ROLE",
      "outputs": [
        {
          "internalType": "bytes32",
          "name": "",
          "type": "bytes32"
        }
      ],
      "stateMutability": "view",
      "type": "function"
    },
    {
      "inputs": [],
      "name": "DEFAULT_ADMIN_ROLE",
      "outputs": [
        {
          "internalType": "bytes32",
          "name": "",
          "type": "bytes32"
        }
      ],
      "stateMutability": "view",
      "type": "function"
    },
    {
      "inputs": [],
      "name": "FAILURE_RATE",
      "outputs": [
        {
          "internalType": "uint256",
          "name": "",
          "type": "uint256"
        }
      ],
      "stateMutability": "view",
      "type": "function"
    },
    {
      "inputs": [],
      "name": "SYNTHESIS_FEE",
      "outputs": [
        {
          "internalType": "uint256",
          "name": "",
          "type": "uint256"
        }
      ],
      "stateMutability": "view",
      "type": "function"
    },
    {
      "inputs": [],
      "name": "gameToken",
      "outputs": [
        {
          "internalType": "contract IERC20",
          "name": "",
          "type": "address"
        }
      ],
      "stateMutability": "view",
      "type": "function"
    },
    {
      "inputs": [
        {
          "internalType": "uint8",
          "name": "rarity",
          "type": "uint8"
        }
      ],
      "name": "getPoolSizes",
      "outputs": [
        {
          "internalType": "uint256",
          "name": "unclaimed",
          "type": "uint256"
        },
        {
          "internalType": "uint256",
          "name": "claimed",
          "type": "uint256"
        }
      ],
      "stateMutability": "view",
      "type": "function"
    },
    {
      "inputs": [
        {
          "internalType": "bytes32",
          "name": "role",
          "type": "bytes32"
        }
      ],
      "name": "getRoleAdmin",
      "outputs": [
        {
          "internalType": "bytes32",
          "name": "",
          "type": "bytes32"
        }
      ],
      "stateMutability": "view",
      "type": "function"
    },
    {
      "inputs": [
        {
          "internalType": "bytes32",
          "name": "role",
          "type": "bytes32"
        },
        {
          "internalType": "address",
          "name": "account",
          "type": "address"
        }
      ],
      "name": "grantRole",
      "outputs": [],
      "stateMutability": "nonpayable",
      "type": "function"
    },
    {
      "inputs": [
        {
          "internalType": "bytes32",
          "name": "role",
          "type": "bytes32"
        },
        {
          "internalType": "address",
          "name": "account",
          "type": "address"
        }
      ],
      "name": "hasRole",
      "outputs": [
        {
          "internalType": "bool",
          "name": "",
          "type": "bool"
        }
      ],
      "stateMutability": "view",
      "type": "function"
    },
    {
      "inputs": [],
      "name": "metadataCID",
      "outputs": [
        {
          "internalType": "string",
          "name": "",
          "type": "string"
        }
      ],
      "stateMutability": "view",
      "type": "function"
    },
    {
      "inputs": [],
      "name": "nftCollection",
      "outputs": [
        {
          "internalType": "contract NFTCollection",
          "name": "",
          "type": "address"
        }
      ],
      "stateMutability": "view",
      "type": "function"
    },
    {
      "inputs": [
        {
          "internalType": "uint256",
          "name": "",
          "type": "uint256"
        }
      ],
      "name": "raritySupplyLimits",
      "outputs": [
        {
          "internalType": "uint256",
          "name": "",
          "type": "uint256"
        }
      ],
      "stateMutability": "view",
      "type": "function"
    },
    {
      "inputs": [
        {
          "internalType": "bytes32",
          "name": "role",
          "type": "bytes32"
        },
        {
          "internalType": "address",
          "name": "callerConfirmation",
          "type": "address"
        }
      ],
      "name": "renounceRole",
      "outputs": [],
      "stateMutability": "nonpayable",
      "type": "function"
    },
    {
      "inputs": [
        {
          "internalType": "uint8",
          "name": "rarity",
          "type": "uint8"
        },
        {
          "internalType": "uint256[]",
          "name": "indices",
          "type": "uint256[]"
        }
      ],
      "name": "replenishPool",
      "outputs": [],
      "stateMutability": "nonpayable",
      "type": "function"
    },
    {
      "inputs": [
        {
          "internalType": "bytes32",
          "name": "role",
          "type": "bytes32"
        },
        {
          "internalType": "address",
          "name": "account",
          "type": "address"
        }
      ],
      "name": "revokeRole",
      "outputs": [],
      "stateMutability": "nonpayable",
      "type": "function"
    },
    {
      "inputs": [
        {
          "internalType": "string",
          "name": "newCID",
          "type": "string"
        }
      ],
      "name": "setMetadataCID",
      "outputs": [],
      "stateMutability": "nonpayable",
      "type": "function"
    },
    {
      "inputs": [
        {
          "internalType": "bytes4",
          "name": "interfaceId",
          "type": "bytes4"
        }
      ],
      "name": "supportsInterface",
      "outputs": [
        {
          "internalType": "bool",
          "name": "",
          "type": "bool"
        }
      ],
      "stateMutability": "view",
      "type": "function"
    },
    {
      "inputs": [
        {
          "internalType": "uint256[]",
          "name": "tokenIds",
          "type": "uint256[]"
        }
      ],
      "name": "synthesize",
      "outputs": [],
      "stateMutability": "nonpayable",
      "type": "function"
    }
  ],
  "bytecode": "0x60066101409081526531b7b6b6b7b760d11b6101605260c09081526004610180818152637261726560e01b6101a05260e0526101c0818152636570696360e01b6101e052610100526102406040526009610200908152686c6567656e6461727960b81b610220526101205262000078916002916200030a565b5034801562000085575f80fd5b5060405162002bef38038062002bef833981016040819052620000a891620004e2565b6001600160a01b038416620001045760405162461bcd60e51b815260206004820152601360248201527f496e76616c69642047544b20616464726573730000000000000000000000000060448201526064015b60405180910390fd5b6001600160a01b0383166200015c5760405162461bcd60e51b815260206004820152601a60248201527f496e76616c696420636f6c6c656374696f6e20616464726573730000000000006044820152606401620000fb565b6001600160a01b03808516608052831660a05260016200017d838262000656565b506200018d60088260046200035a565b505f5b60048160ff16101562000219575f828260ff1660048110620001b657620001b66200071e565b6020020151905060015b818111620002015760ff83165f9081526006602090815260408220805460018101825590835291200181905580620001f88162000746565b915050620001c0565b50508080620002109062000761565b91505062000190565b50620002265f336200025e565b50620002537fa49807205ce4d355092ef5a8a18f56e8913cf4a201fbe287825b095693c21775336200025e565b505050505062000782565b5f828152602081815260408083206001600160a01b038516845290915281205460ff1662000301575f838152602081815260408083206001600160a01b03861684529091529020805460ff19166001179055620002b83390565b6001600160a01b0316826001600160a01b0316847f2f8788117e7eff1d82e926ec794901d17c78024a50270940304540a733656f0d60405160405180910390a450600162000304565b505f5b92915050565b826004810192821562000348579160200282015b8281111562000348578251829062000337908262000656565b50916020019190600101906200031e565b506200035692915062000399565b5090565b82600481019282156200038b579160200282015b828111156200038b5782518255916020019190600101906200036e565b5062000356929150620003b9565b8082111562000356575f620003af8282620003cf565b5060010162000399565b5b8082111562000356575f8155600101620003ba565b508054620003dd90620005ca565b5f825580601f10620003ed575050565b601f0160209004905f5260205f20908101906200040b9190620003b9565b50565b80516001600160a01b038116811462000425575f80fd5b919050565b634e487b7160e01b5f52604160045260245ffd5b604051601f8201601f191681016001600160401b03811182821017156200046957620004696200042a565b604052919050565b5f82601f83011262000481575f80fd5b604051608081016001600160401b0381118282101715620004a657620004a66200042a565b604052806080840185811115620004bb575f80fd5b845b81811015620004d7578051835260209283019201620004bd565b509195945050505050565b5f805f8060e08587031215620004f6575f80fd5b62000501856200040e565b93506020620005128187016200040e565b60408701519094506001600160401b03808211156200052f575f80fd5b818801915088601f83011262000543575f80fd5b8151818111156200055857620005586200042a565b6200056c601f8201601f191685016200043e565b9150808252898482850101111562000582575f80fd5b5f5b81811015620005a157838101850151838201860152840162000584565b505f84828401015250809450505050620005bf866060870162000471565b905092959194509250565b600181811c90821680620005df57607f821691505b602082108103620005fe57634e487b7160e01b5f52602260045260245ffd5b50919050565b601f82111562000651575f81815260208120601f850160051c810160208610156200062c5750805b601f850160051c820191505b818110156200064d5782815560010162000638565b5050505b505050565b81516001600160401b038111156200067257620006726200042a565b6200068a81620006838454620005ca565b8462000604565b602080601f831160018114620006c0575f8415620006a85750858301515b5f19600386901b1c1916600185901b1785556200064d565b5f85815260208120601f198616915b82811015620006f057888601518255948401946001909101908401620006cf565b50858210156200070e57878501515f19600388901b60f8161c191681555b5050505050600190811b01905550565b634e487b7160e01b5f52603260045260245ffd5b634e487b7160e01b5f52601160045260245ffd5b5f600182016200075a576200075a62000732565b5060010190565b5f60ff821660ff810362000779576200077962000732565b60010192915050565b60805160a051612405620007ea5f395f81816101e80152818161078801528181610b5301528181610c3801528181610d3e01528181610db101528181610ece0152610f7001525f81816102c7015281816108ae015281816109860152610a6801526124055ff3fe608060405234801561000f575f80fd5b5060043610610111575f3560e01c806375b238fc1161009e578063a59698061161006e578063a5969806146102a7578063a732ec61146102ba578063c3dfdae6146102c2578063d547741f146102e9578063d6daef60146102fc575f80fd5b806375b238fc1461022257806391d1485414610249578063a217fddf1461025c578063a3a519cb14610263575f80fd5b806336568abe116100e457806336568abe14610195578063574f099e146101a857806358068534146101bb57806358871c46146101ce5780636588103b146101e3575f80fd5b806301ffc9a714610115578063248a9ca31461013d5780632edb58441461016d5780632f2ff15d14610182575b5f80fd5b610128610123366004611a10565b61030c565b60405190151581526020015b60405180910390f35b61015f61014b366004611a3e565b5f9081526020819052604090206001015490565b604051908152602001610134565b61018061017b366004611a55565b610342565b005b610180610190366004611ad5565b6103f9565b6101806101a3366004611ad5565b610423565b6101806101b6366004611b59565b61045b565b61015f6101c9366004611a3e565b610627565b6101d661063d565b6040516101349190611bf7565b61020a7f000000000000000000000000000000000000000000000000000000000000000081565b6040516001600160a01b039091168152602001610134565b61015f7fa49807205ce4d355092ef5a8a18f56e8913cf4a201fbe287825b095693c2177581565b610128610257366004611ad5565b6106c9565b61015f5f81565b610292610271366004611c09565b60ff165f908152600660209081526040808320546007909252909120549091565b60408051928352602083019190915201610134565b6101806102b5366004611c24565b6106f1565b61015f600a81565b61020a7f000000000000000000000000000000000000000000000000000000000000000081565b6101806102f7366004611ad5565b61105e565b61015f681b1ae4d6e2ef50000081565b5f6001600160e01b03198216637965db0b60e01b148061033c57506301ffc9a760e01b6001600160e01b03198316145b92915050565b7fa49807205ce4d355092ef5a8a18f56e8913cf4a201fbe287825b095693c2177561036c81611082565b816103ad5760405162461bcd60e51b815260206004820152600c60248201526b10d251081c995c5d5a5c995960a21b60448201526064015b60405180910390fd5b60016103ba838583611cfc565b507fdff802e5ba8a1ddd87ae907ec704b6149f07294588c772bca93d0b932e77614583836040516103ec929190611db8565b60405180910390a1505050565b5f8281526020819052604090206001015461041381611082565b61041d838361108f565b50505050565b6001600160a01b038116331461044c5760405163334bd91960e11b815260040160405180910390fd5b610456828261111e565b505050565b7fa49807205ce4d355092ef5a8a18f56e8913cf4a201fbe287825b095693c2177561048581611082565b600360ff851611156104ca5760405162461bcd60e51b815260206004820152600e60248201526d496e76616c69642072617269747960901b60448201526064016103a4565b816105045760405162461bcd60e51b815260206004820152600a6024820152694e6f20696e646963657360b01b60448201526064016103a4565b5f5b828110156105e8575f84848381811061052157610521611de6565b90506020020135116105655760405162461bcd60e51b815260206004820152600d60248201526c092dcecc2d8d2c840d2dcc8caf609b1b60448201526064016103a4565b60ff85165f90815260066020526040902084848381811061058857610588611de6565b8354600180820186555f95865260209586902092909502939093013592019190915550600860ff8716600481106105c1576105c1611de6565b015f8282546105d09190611e0e565b909155508190506105e081611e21565b915050610506565b5060405182815260ff8516907f8867c8ccf31affe2036122c24dd183b7fd94bc0be1a598d6323ec91cb7ff09c19060200160405180910390a250505050565b60088160048110610636575f80fd5b0154905081565b6001805461064a90611c77565b80601f016020809104026020016040519081016040528092919081815260200182805461067690611c77565b80156106c15780601f10610698576101008083540402835291602001916106c1565b820191905f5260205f20905b8154815290600101906020018083116106a457829003601f168201915b505050505081565b5f918252602082815260408084206001600160a01b0393909316845291905290205460ff1690565b600581146107315760405162461bcd60e51b815260206004820152600d60248201526c4e656564203520746f6b656e7360981b60448201526064016103a4565b5f6001805461073f90611c77565b9050116107855760405162461bcd60e51b815260206004820152601460248201527313595d1859185d184810d251081b9bdd081cd95d60621b60448201526064016103a4565b5f7f00000000000000000000000000000000000000000000000000000000000000006001600160a01b0316631f4f5a2384845f8181106107c7576107c7611de6565b905060200201356040518263ffffffff1660e01b81526004016107ec91815260200190565b5f60405180830381865afa158015610806573d5f803e3d5ffd5b505050506040513d5f823e601f3d908101601f1916820160405261082d9190810190611ee7565b6040810151909150600360ff8216106108885760405162461bcd60e51b815260206004820152601b60248201527f4c6567656e646172792063616e6e6f742073796e74686573697a65000000000060448201526064016103a4565b604051636eb1769f60e11b8152336004820152306024820152681b1ae4d6e2ef500000907f00000000000000000000000000000000000000000000000000000000000000006001600160a01b03169063dd62ed3e90604401602060405180830381865afa1580156108fb573d5f803e3d5ffd5b505050506040513d601f19601f8201168201806040525081019061091f9190611f9f565b10156109665760405162461bcd60e51b8152602060048201526016602482015275496e73756666696369656e7420616c6c6f77616e636560501b60448201526064016103a4565b6040516370a0823160e01b8152336004820152681b1ae4d6e2ef500000907f00000000000000000000000000000000000000000000000000000000000000006001600160a01b0316906370a0823190602401602060405180830381865afa1580156109d3573d5f803e3d5ffd5b505050506040513d601f19601f820116820180604052508101906109f79190611f9f565b1015610a3c5760405162461bcd60e51b8152602060048201526014602482015273496e73756666696369656e742062616c616e636560601b60448201526064016103a4565b6040516323b872dd60e01b8152336004820152306024820152681b1ae4d6e2ef50000060448201525f907f00000000000000000000000000000000000000000000000000000000000000006001600160a01b0316906323b872dd906064016020604051808303815f875af1158015610ab6573d5f803e3d5ffd5b505050506040513d601f19601f82011682018060405250810190610ada9190611fb6565b905080610b1f5760405162461bcd60e51b815260206004820152601360248201527211d512c81d1c985b9cd9995c8819985a5b1959606a1b60448201526064016103a4565b5f805f5b86811015610e27575f888883818110610b3e57610b3e611de6565b905060200201359050336001600160a01b03167f00000000000000000000000000000000000000000000000000000000000000006001600160a01b0316636352211e836040518263ffffffff1660e01b8152600401610b9f91815260200190565b602060405180830381865afa158015610bba573d5f803e3d5ffd5b505050506040513d601f19601f82011682018060405250810190610bde9190611fd5565b6001600160a01b031614610c205760405162461bcd60e51b81526020600482015260096024820152682737ba1037bbb732b960b91b60448201526064016103a4565b604051631f4f5a2360e01b8152600481018290525f907f00000000000000000000000000000000000000000000000000000000000000006001600160a01b031690631f4f5a23906024015f60405180830381865afa158015610c84573d5f803e3d5ffd5b505050506040513d5f823e601f3d908101601f19168201604052610cab9190810190611ee7565b90508660ff16816040015160ff1614610cf85760405162461bcd60e51b815260206004820152600f60248201526e0a4c2e4d2e8f240dad2e6dac2e8c6d608b1b60448201526064016103a4565b6060810151610d079086611e0e565b9450806080015184610d199190611e0e565b6040516323b872dd60e01b8152336004820152306024820152604481018490529094507f00000000000000000000000000000000000000000000000000000000000000006001600160a01b0316906323b872dd906064015f604051808303815f87803b158015610d87575f80fd5b505af1158015610d99573d5f803e3d5ffd5b5050604051630852cd8d60e31b8152600481018590527f00000000000000000000000000000000000000000000000000000000000000006001600160a01b031692506342966c6891506024015f604051808303815f87803b158015610dfc575f80fd5b505af1158015610e0e573d5f803e3d5ffd5b5050505050508080610e1f90611e21565b915050610b23565b505f600a610e4e60648a8a5f818110610e4257610e42611de6565b90506020020135611187565b10801591508590610eac575f610e65876003611ff0565b905060ff811615610eaa575f610e7e8260ff1644611187565b610e89906001611e0e565b9050610e958189612009565b9250600360ff84161115610ea857600392505b505b505b5f610eb8828b8b6111e6565b90505f610eca86868c8b87878a611353565b90507f00000000000000000000000000000000000000000000000000000000000000006001600160a01b031663d001120133610f0686866113c9565b84516020860151604080880151606089015191516001600160e01b031960e089901b168152610f3e96959493928c9291600401612022565b5f604051808303815f87803b158015610f55575f80fd5b505af1158015610f67573d5f803e3d5ffd5b505050505f60017f00000000000000000000000000000000000000000000000000000000000000006001600160a01b03166375794a3c6040518163ffffffff1660e01b8152600401602060405180830381865afa158015610fca573d5f803e3d5ffd5b505050506040513d601f19601f82011682018060405250810190610fee9190611f9f565b610ff8919061208e565b6040805160ff8c8116825288151560208301528716818301526060810183905260808101869052905191925033917fab984844453f6cfe856959712775c3890ec061c3613979b7a8f4030377c484379181900360a00190a2505050505050505050505050565b5f8281526020819052604090206001015461107881611082565b61041d838361111e565b61108c8133611577565b50565b5f61109a83836106c9565b611117575f838152602081815260408083206001600160a01b03861684529091529020805460ff191660011790556110cf3390565b6001600160a01b0316826001600160a01b0316847f2f8788117e7eff1d82e926ec794901d17c78024a50270940304540a733656f0d60405160405180910390a450600161033c565b505f61033c565b5f61112983836106c9565b15611117575f838152602081815260408083206001600160a01b0386168085529252808320805460ff1916905551339286917ff6391f5c32d9c69d2a47ea670b442974b53935d1edc7fd64eb21e047a839171b9190a450600161033c565b604080514260208201526001600160601b03193360601b1691810191909152605481018290524460748201525f90819060940160408051601f19818403018152919052805160209091012090506111de84826120b5565b949350505050565b60ff83165f908152600660205260408120805461123c5760405162461bcd60e51b815260206004820152601460248201527353796e74686573697320706f6f6c20656d70747960601b60448201526064016103a4565b5f424433888888604051602001611258969594939291906120c8565b60408051601f19818403018152919052805160209091012082549091505f9061128190836120b5565b90505f83828154811061129657611296611de6565b905f5260205f2001549050600184805490506112b2919061208e565b82146112ff57835484906112c89060019061208e565b815481106112d8576112d8611de6565b905f5260205f2001548483815481106112f3576112f3611de6565b5f918252602090912001555b8380548061130f5761130f61212b565b5f828152602080822083015f1990810183905590920190925560ff8a1682526007815260408220805460018101825590835291200181905593505050509392505050565b61137c604051806080016040528060608152602001606081526020015f81526020015f81525090565b5f8061138a878787876115b4565b915091505f8061139d8c8c8c8b8a61167c565b604080516080810182529687526020870195909552938501525050606082015298975050505050505050565b60605f600180546113d990611c77565b80601f016020809104026020016040519081016040528092919081815260200182805461140590611c77565b80156114505780601f1061142757610100808354040283529160200191611450565b820191905f5260205f20905b81548152906001019060200180831161143357829003601f168201915b505050505090505f81511161149e5760405162461bcd60e51b815260206004820152601460248201527313595d1859185d184810d251081b9bdd081cd95d60621b60448201526064016103a4565b5f60028560ff16600481106114b5576114b5611de6565b0180546114c190611c77565b80601f01602080910402602001604051908101604052809291908181526020018280546114ed90611c77565b80156115385780601f1061150f57610100808354040283529160200191611538565b820191905f5260205f20905b81548152906001019060200180831161151b57829003601f168201915b5050505050905081818261154b876117a1565b60405160200161155e949392919061213f565b6040516020818303038152906040529250505092915050565b61158182826106c9565b6115b05760405163e2517d3f60e01b81526001600160a01b0382166004820152602481018390526044016103a4565b5050565b6060805f6115c186611800565b90505f6115cd866117a1565b9050841561162a5781816040516020016115e89291906121ec565b604051602081830303815290604052935061160288611800565b8260405160200161161492919061223b565b6040516020818303038152906040529250611671565b818160405160200161163d929190612295565b60405160208183030381529060405293508160405160200161165f91906122e9565b60405160208183030381529060405292505b505094509492505050565b5f80806116898689612354565b90505f6116968789612354565b90505f6116a760ff88166001611e0e565b6116b2906019612367565b905085156116cc576116c5601482611e0e565b90506116da565b6116d7600582611e0e565b90505b5f426116e760014361208e565b403360405160200161171993929190928352602083019190915260601b6001600160601b031916604082015260540190565b604051602081830303815290604052805190602001205f1c90505f61173f607883611187565b90505f611761605a866117528987611e0e565b61175c9190611e0e565b611187565b90508161176e8588611e0e565b6117789190611e0e565b9750806117858587611e0e565b61178f9190611e0e565b96505050505050509550959350505050565b60605f6117ad836118a9565b905060038151106117be5792915050565b80516002036117ef57806040516020016117d8919061237e565b604051602081830303815290604052915050919050565b806040516020016117d891906123a6565b60608160ff165f0361182e57505060408051808201909152600681526521b7b6b6b7b760d11b602082015290565b8160ff166001036118595750506040805180820190915260048152635261726560e01b602082015290565b8160ff166002036118845750506040805180820190915260048152634570696360e01b602082015290565b50506040805180820190915260098152684c6567656e6461727960b81b602082015290565b60605f6118b583611939565b60010190505f8167ffffffffffffffff8111156118d4576118d4611c63565b6040519080825280601f01601f1916602001820160405280156118fe576020820181803683370190505b5090508181016020015b5f19016f181899199a1a9b1b9c1cb0b131b232b360811b600a86061a8153600a850494508461190857509392505050565b5f8072184f03e93ff9f4daa797ed6e38ed64bf6a1f0160401b83106119775772184f03e93ff9f4daa797ed6e38ed64bf6a1f0160401b830492506040015b6d04ee2d6d415b85acef810000000083106119a3576d04ee2d6d415b85acef8100000000830492506020015b662386f26fc1000083106119c157662386f26fc10000830492506010015b6305f5e10083106119d9576305f5e100830492506008015b61271083106119ed57612710830492506004015b606483106119ff576064830492506002015b600a831061033c5760010192915050565b5f60208284031215611a20575f80fd5b81356001600160e01b031981168114611a37575f80fd5b9392505050565b5f60208284031215611a4e575f80fd5b5035919050565b5f8060208385031215611a66575f80fd5b823567ffffffffffffffff80821115611a7d575f80fd5b818501915085601f830112611a90575f80fd5b813581811115611a9e575f80fd5b866020828501011115611aaf575f80fd5b60209290920196919550909350505050565b6001600160a01b038116811461108c575f80fd5b5f8060408385031215611ae6575f80fd5b823591506020830135611af881611ac1565b809150509250929050565b60ff8116811461108c575f80fd5b5f8083601f840112611b21575f80fd5b50813567ffffffffffffffff811115611b38575f80fd5b6020830191508360208260051b8501011115611b52575f80fd5b9250929050565b5f805f60408486031215611b6b575f80fd5b8335611b7681611b03565b9250602084013567ffffffffffffffff811115611b91575f80fd5b611b9d86828701611b11565b9497909650939450505050565b5f5b83811015611bc4578181015183820152602001611bac565b50505f910152565b5f8151808452611be3816020860160208601611baa565b601f01601f19169290920160200192915050565b602081525f611a376020830184611bcc565b5f60208284031215611c19575f80fd5b8135611a3781611b03565b5f8060208385031215611c35575f80fd5b823567ffffffffffffffff811115611c4b575f80fd5b611c5785828601611b11565b90969095509350505050565b634e487b7160e01b5f52604160045260245ffd5b600181811c90821680611c8b57607f821691505b602082108103611ca957634e487b7160e01b5f52602260045260245ffd5b50919050565b601f821115610456575f81815260208120601f850160051c81016020861015611cd55750805b601f850160051c820191505b81811015611cf457828155600101611ce1565b505050505050565b67ffffffffffffffff831115611d1457611d14611c63565b611d2883611d228354611c77565b83611caf565b5f601f841160018114611d59575f8515611d425750838201355b5f19600387901b1c1916600186901b178355611db1565b5f83815260209020601f19861690835b82811015611d895786850135825560209485019460019092019101611d69565b5086821015611da5575f1960f88860031b161c19848701351681555b505060018560011b0183555b5050505050565b60208152816020820152818360408301375f818301604090810191909152601f909201601f19160101919050565b634e487b7160e01b5f52603260045260245ffd5b634e487b7160e01b5f52601160045260245ffd5b8082018082111561033c5761033c611dfa565b5f60018201611e3257611e32611dfa565b5060010190565b60405160a0810167ffffffffffffffff81118282101715611e5c57611e5c611c63565b60405290565b5f82601f830112611e71575f80fd5b815167ffffffffffffffff80821115611e8c57611e8c611c63565b604051601f8301601f19908116603f01168101908282118183101715611eb457611eb4611c63565b81604052838152866020858801011115611ecc575f80fd5b611edd846020830160208901611baa565b9695505050505050565b5f60208284031215611ef7575f80fd5b815167ffffffffffffffff80821115611f0e575f80fd5b9083019060a08286031215611f21575f80fd5b611f29611e39565b825182811115611f37575f80fd5b611f4387828601611e62565b825250602083015182811115611f57575f80fd5b611f6387828601611e62565b60208301525060408301519150611f7982611b03565b816040820152606083015160608201526080830151608082015280935050505092915050565b5f60208284031215611faf575f80fd5b5051919050565b5f60208284031215611fc6575f80fd5b81518015158114611a37575f80fd5b5f60208284031215611fe5575f80fd5b8151611a3781611ac1565b60ff828116828216039081111561033c5761033c611dfa565b60ff818116838216019081111561033c5761033c611dfa565b6001600160a01b038816815260e0602082018190525f9061204590830189611bcc565b82810360408401526120578189611bcc565b9050828103606084015261206b8188611bcc565b60ff969096166080840152505060a081019290925260c090910152949350505050565b8181038181111561033c5761033c611dfa565b634e487b7160e01b5f52601260045260245ffd5b5f826120c3576120c36120a1565b500690565b86815260208101869052606085901b6001600160601b031916604082015260f884901b6001600160f81b03191660548201525f6001600160fb1b0383111561210e575f80fd5b8260051b8085605585013791909101605501979650505050505050565b634e487b7160e01b5f52603160045260245ffd5b66697066733a2f2f60c81b81525f8551612160816007850160208a01611baa565b672f667573696f6e2f60c01b600791840191820152855161218881600f840160208a01611baa565b602f60f81b600f929091019182015284516121aa816010840160208901611baa565b602d60f81b6010929091019182015283516121cc816011840160208801611baa565b64173539b7b760d91b601192909101918201526016019695505050505050565b660233ab9b4b7b7160cd1b81525f835161220d816007850160208801611baa565b61202360f01b600791840191820152835161222f816009840160208801611baa565b01600901949350505050565b6f0233ab9b4b7b71039bab1b1b2b9b99d160851b81525f8351612265816010850160208801611baa565b63010169f160e51b6010918401918201528351612289816014840160208801611baa565b01601401949350505050565b6b021b7b739b7b630ba34b7b7160a51b81525f83516122bb81600c850160208801611baa565b61202360f01b600c9184019182015283516122dd81600e840160208801611baa565b01600e01949350505050565b7f467573696f6e206661696c6564206275742061206e657720000000000000000081525f8251612320816018850160208701611baa565b7f206865726f206172697365732066726f6d207468652061736865732e000000006018939091019283015250603401919050565b5f82612362576123626120a1565b500490565b808202811582820484141761033c5761033c611dfa565b600360fc1b81525f8251612399816001850160208701611baa565b9190910160010192915050565b61030360f41b81525f82516123c2816002850160208701611baa565b919091016002019291505056fea26469706673582212201489a88a4ff89d325a85f737dc6151e83c3a5dc441ea11dec35c4f31b7d70add64736f6c63430008140033",
  "linkReferences": {},
  "deployedLinkReferences": {},
  "immutableReferences": {
    "3433": [
      {
        "length": 32,
        "start": 711
      },
      {
        "length": 32,
        "start": 2222
      },
      {
        "length": 32,
        "start": 2438
      },
      {
        "length": 32,
        "start": 2664
      }
    ],
    "3436": [
      {
        "length": 32,
        "start": 488
      },
      {
        "length": 32,
        "start": 1928
      },
      {
        "length": 32,
        "start": 2899
      },
      {
        "length": 32,
        "start": 3128
      },
      {
        "length": 32,
        "start": 3390
      },
      {
        "length": 32,
        "start": 3505
      },
      {
        "length": 32,
        "start": 3790
      },
      {
        "length": 32,
        "start": 3952
      }
    ]
  },
  "inputSourceName": "project/contracts/CardSynthesis.sol",
  "buildInfoId": "solc-0_8_20-cc503414974e5b01fac3259d55c4ebec846b2e09"
}