{
  "_format": "hh3-artifact-1",
  "contractName": "NFTCollection",
  "sourceName": "contracts/NFTCollection.sol",
  "abi": [
    {
      "inputs": [],
      "stateMutability": "nonpayable",
      "type": "constructor"
    },
    {
      "inputs": [],
      "name": "AccessControlBadConfirmation",
      "type": "error"
    },
    {
      "inputs": [
        {
          "internalType": "address",
          "name": "account",
          "type": "address"
        },
        {
          "internalType": "bytes32",
          "name": "neededRole",
          "type": "bytes32"
        }
      ],
      "name": "AccessControlUnauthorizedAccount",
      "type": "error"
    },
    {
      "inputs": [
        {
          "internalType": "address",
          "name": "sender",
          "type": "address"
        },
        {
          "internalType": "uint256",
          "name": "tokenId",
          "type": "uint256"
        },
        {
          "internalType": "address",
          "name": "owner",
          "type": "address"
        }
      ],
      "name": "ERC721IncorrectOwner",
      "type": "error"
    },
    {
      "inputs": [
        {
          "internalType": "address",
          "name": "operator",
          "type": "address"
        },
        {
          "internalType": "uint256",
          "name": "tokenId",
          "type": "uint256"
        }
      ],
      "name": "ERC721InsufficientApproval",
      "type": "error"
    },
    {
      "inputs": [
        {
          "internalType": "address",
          "name": "approver",
          "type": "address"
        }
      ],
      "name": "ERC721InvalidApprover",
      "type": "error"
    },
    {
      "inputs": [
        {
          "internalType": "address",
          "name": "operator",
          "type": "address"
        }
      ],
      "name": "ERC721InvalidOperator",
      "type": "error"
    },
    {
      "inputs": [
        {
          "internalType": "address",
          "name": "owner",
          "type": "address"
        }
      ],
      "name": "ERC721InvalidOwner",
      "type": "error"
    },
    {
      "inputs": [
        {
          "internalType": "address",
          "name": "receiver",
          "type": "address"
        }
      ],
      "name": "ERC721InvalidReceiver",
      "type": "error"
    },
    {
      "inputs": [
        {
          "internalType": "address",
          "name": "sender",
          "type": "address"
        }
      ],
      "name": "ERC721InvalidSender",
      "type": "error"
    },
    {
      "inputs": [
        {
          "internalType": "uint256",
          "name": "tokenId",
          "type": "uint256"
        }
      ],
      "name": "ERC721NonexistentToken",
      "type": "error"
    },
    {
      "anonymous": false,
      "inputs": [
        {
          "indexed": true,
          "internalType": "address",
          "name": "owner",
          "type": "address"
        },
        {
          "indexed": true,
          "internalType": "address",
          "name": "approved",
          "type": "address"
        },
        {
          "indexed": true,
          "internalType": "uint256",
          "name": "tokenId",
          "type": "uint256"
        }
      ],
      "name": "Approval",
      "type": "event"
    },
    {
      "anonymous": false,
      "inputs": [
        {
          "indexed": true,
          "internalType": "address",
          "name": "owner",
          "type": "address"
        },
        {
          "indexed": true,
          "internalType": "address",
          "name": "operator",
          "type": "address"
        },
        {
          "indexed": false,
          "internalType": "bool",
          "name": "approved",
          "type": "bool"
        }
      ],
      "name": "ApprovalForAll",
      "type": "event"
    },
    {
      "anonymous": false,
      "inputs": [
        {
          "indexed": false,
          "internalType": "uint256",
          "name": "_fromTokenId",
          "type": "uint256"
        },
        {
          "indexed": false,
          "internalType": "uint256",
          "name": "_toTokenId",
          "type": "uint256"
        }
      ],
      "name": "BatchMetadataUpdate",
      "type": "event"
    },
    {
      "anonymous": false,
      "inputs": [
        {
          "indexed": false,
          "internalType": "uint256",
          "name": "_tokenId",
          "type": "uint256"
        }
      ],
      "name": "MetadataUpdate",
      "type": "event"
    },
    {
      "anonymous": false,
      "inputs": [
        {
          "indexed": true,
          "internalType": "uint256",
          "name": "tokenId",
          "type": "uint256"
        },
        {
          "indexed": true,
          "internalType": "address",
          "name": "owner",
          "type": "address"
        },
        {
          "indexed": false,
          "internalType": "uint8",
          "name": "rarity",
          "type": "uint8"
        }
      ],
      "name": "NFTCreated",
      "type": "event"
    },
    {
      "anonymous": false,
      "inputs": [
        {
          "indexed": true,
          "internalType": "bytes32",
          "name": "role",
          "type": "bytes32"
        },
        {
          "indexed": true,
          "internalType": "bytes32",
          "name": "previousAdminRole",
          "type": "bytes32"
        },
        {
          "indexed": true,
          "internalType": "bytes32",
          "name": "newAdminRole",
          "type": "bytes32"
        }
      ],
      "name": "RoleAdminChanged",
      "type": "event"
    },
    {
      "anonymous": false,
      "inputs": [
        {
          "indexed": true,
          "internalType": "bytes32",
          "name": "role",
          "type": "bytes32"
        },
        {
          "indexed": true,
          "internalType": "address",
          "name": "account",
          "type": "address"
        },
        {
          "indexed": true,
          "internalType": "address",
          "name": "sender",
          "type": "address"
        }
      ],
      "name": "RoleGranted",
      "type": "event"
    },
    {
      "anonymous": false,
      "inputs": [
        {
          "indexed": true,
          "internalType": "bytes32",
          "name": "role",
          "type": "bytes32"
        },
        {
          "indexed": true,
          "internalType": "address",
          "name": "account",
          "type": "address"
        },
        {
          "indexed": true,
          "internalType": "address",
          "name": "sender",
          "type": "address"
        }
      ],
      "name": "RoleRevoked",
      "type": "event"
    },
    {
      "anonymous": false,
      "inputs": [
        {
          "indexed": true,
          "internalType": "address",
          "name": "from",
          "type": "address"
        },
        {
          "indexed": true,
          "internalType": "address",
          "name": "to",
          "type": "address"
        },
        {
          "indexed": true,
          "internalType": "uint256",
          "name": "tokenId",
          "type": "uint256"
        }
      ],
      "name": "Transfer",
      "type": "event"
    },
    {
      "inputs": [],
      "name": "DEFAULT_ADMIN_ROLE",
      "outputs": [
        {
          "internalType": "bytes32",
          "name": "",
          "type": "bytes32"
        }
      ],
      "stateMutability": "view",
      "type": "function"
    },
    {
      "inputs": [],
      "name": "MINTER_ROLE",
      "outputs": [
        {
          "internalType": "bytes32",
          "name": "",
          "type": "bytes32"
        }
      ],
      "stateMutability": "view",
      "type": "function"
    },
    {
      "inputs": [
        {
          "internalType": "address",
          "name": "to",
          "type": "address"
        },
        {
          "internalType": "uint256",
          "name": "tokenId",
          "type": "uint256"
        }
      ],
      "name": "approve",
      "outputs": [],
      "stateMutability": "nonpayable",
      "type": "function"
    },
    {
      "inputs": [
        {
          "internalType": "address",
          "name": "owner",
          "type": "address"
        }
      ],
      "name": "balanceOf",
      "outputs": [
        {
          "internalType": "uint256",
          "name": "",
          "type": "uint256"
        }
      ],
      "stateMutability": "view",
      "type": "function"
    },
    {
      "inputs": [
        {
          "internalType": "uint256",
          "name": "tokenId",
          "type": "uint256"
        }
      ],
      "name": "burn",
      "outputs": [],
      "stateMutability": "nonpayable",
      "type": "function"
    },
    {
      "inputs": [
        {
          "internalType": "uint256",
          "name": "tokenId",
          "type": "uint256"
        }
      ],
      "name": "getApproved",
      "outputs": [
        {
          "internalType": "address",
          "name": "",
          "type": "address"
        }
      ],
      "stateMutability": "view",
      "type": "function"
    },
    {
      "inputs": [
        {
          "internalType": "bytes32",
          "name": "role",
          "type": "bytes32"
        }
      ],
      "name": "getRoleAdmin",
      "outputs": [
        {
          "internalType": "bytes32",
          "name": "",
          "type": "bytes32"
        }
      ],
      "stateMutability": "view",
      "type": "function"
    },
    {
      "inputs": [
        {
          "internalType": "uint256",
          "name": "tokenId",
          "type": "uint256"
        }
      ],
      "name": "getTokenAttributes",
      "outputs": [
        {
          "components": [
            {
              "internalType": "string",
              "name": "name",
              "type": "string"
            },
            {
              "internalType": "string",
              "name": "description",
              "type": "string"
            },
            {
              "internalType": "uint8",
              "name": "rarity",
              "type": "uint8"
            },
            {
              "internalType": "uint256",
              "name": "attack",
              "type": "uint256"
            },
            {
              "internalType": "uint256",
              "name": "defense",
              "type": "uint256"
            }
          ],
          "internalType": "struct NFTCollection.TokenAttributes",
          "name": "",
          "type": "tuple"
        }
      ],
      "stateMutability": "view",
      "type": "function"
    },
    {
      "inputs": [
        {
          "internalType": "bytes32",
          "name": "role",
          "type": "bytes32"
        },
        {
          "internalType": "address",
          "name": "account",
          "type": "address"
        }
      ],
      "name": "grantRole",
      "outputs": [],
      "stateMutability": "nonpayable",
      "type": "function"
    },
    {
      "inputs": [
        {
          "internalType": "bytes32",
          "name": "role",
          "type": "bytes32"
        },
        {
          "internalType": "address",
          "name": "account",
          "type": "address"
        }
      ],
      "name": "hasRole",
      "outputs": [
        {
          "internalType": "bool",
          "name": "",
          "type": "bool"
        }
      ],
      "stateMutability": "view",
      "type": "function"
    },
    {
      "inputs": [
        {
          "internalType": "address",
          "name": "owner",
          "type": "address"
        },
        {
          "internalType": "address",
          "name": "operator",
          "type": "address"
        }
      ],
      "name": "isApprovedForAll",
      "outputs": [
        {
          "internalType": "bool",
          "name": "",
          "type": "bool"
        }
      ],
      "stateMutability": "view",
      "type": "function"
    },
    {
      "inputs": [
        {
          "internalType": "address",
          "name": "to",
          "type": "address"
        },
        {
          "internalType": "string",
          "name": "uri",
          "type": "string"
        },
        {
          "internalType": "string",
          "name": "name",
          "type": "string"
        },
        {
          "internalType": "string",
          "name": "description",
          "type": "string"
        },
        {
          "internalType": "uint8",
          "name": "rarity",
          "type": "uint8"
        },
        {
          "internalType": "uint256",
          "name": "attack",
          "type": "uint256"
        },
        {
          "internalType": "uint256",
          "name": "defense",
          "type": "uint256"
        }
      ],
      "name": "mint",
      "outputs": [],
      "stateMutability": "nonpayable",
      "type": "function"
    },
    {
      "inputs": [],
      "name": "name",
      "outputs": [
        {
          "internalType": "string",
          "name": "",
          "type": "string"
        }
      ],
      "stateMutability": "view",
      "type": "function"
    },
    {
      "inputs": [],
      "name": "nextTokenId",
      "outputs": [
        {
          "internalType": "uint256",
          "name": "",
          "type": "uint256"
        }
      ],
      "stateMutability": "view",
      "type": "function"
    },
    {
      "inputs": [
        {
          "internalType": "uint256",
          "name": "tokenId",
          "type": "uint256"
        }
      ],
      "name": "ownerOf",
      "outputs": [
        {
          "internalType": "address",
          "name": "",
          "type": "address"
        }
      ],
      "stateMutability": "view",
      "type": "function"
    },
    {
      "inputs": [
        {
          "internalType": "bytes32",
          "name": "role",
          "type": "bytes32"
        },
        {
          "internalType": "address",
          "name": "callerConfirmation",
          "type": "address"
        }
      ],
      "name": "renounceRole",
      "outputs": [],
      "stateMutability": "nonpayable",
      "type": "function"
    },
    {
      "inputs": [
        {
          "internalType": "bytes32",
          "name": "role",
          "type": "bytes32"
        },
        {
          "internalType": "address",
          "name": "account",
          "type": "address"
        }
      ],
      "name": "revokeRole",
      "outputs": [],
      "stateMutability": "nonpayable",
      "type": "function"
    },
    {
      "inputs": [
        {
          "internalType": "address",
          "name": "from",
          "type": "address"
        },
        {
          "internalType": "address",
          "name": "to",
          "type": "address"
        },
        {
          "internalType": "uint256",
          "name": "tokenId",
          "type": "uint256"
        }
      ],
      "name": "safeTransferFrom",
      "outputs": [],
      "stateMutability": "nonpayable",
      "type": "function"
    },
    {
      "inputs": [
        {
          "internalType": "address",
          "name": "from",
          "type": "address"
        },
        {
          "internalType": "address",
          "name": "to",
          "type": "address"
        },
        {
          "internalType": "uint256",
          "name": "tokenId",
          "type": "uint256"
        },
        {
          "internalType": "bytes",
          "name": "data",
          "type": "bytes"
        }
      ],
      "name": "safeTransferFrom",
      "outputs": [],
      "stateMutability": "nonpayable",
      "type": "function"
    },
    {
      "inputs": [
        {
          "internalType": "address",
          "name": "operator",
          "type": "address"
        },
        {
          "internalType": "bool",
          "name": "approved",
          "type": "bool"
        }
      ],
      "name": "setApprovalForAll",
      "outputs": [],
      "stateMutability": "nonpayable",
      "type": "function"
    },
    {
      "inputs": [
        {
          "internalType": "bytes4",
          "name": "interfaceId",
          "type": "bytes4"
        }
      ],
      "name": "supportsInterface",
      "outputs": [
        {
          "internalType": "bool",
          "name": "",
          "type": "bool"
        }
      ],
      "stateMutability": "view",
      "type": "function"
    },
    {
      "inputs": [],
      "name": "symbol",
      "outputs": [
        {
          "internalType": "string",
          "name": "",
          "type": "string"
        }
      ],
      "stateMutability": "view",
      "type": "function"
    },
    {
      "inputs": [
        {
          "internalType": "uint256",
          "name": "",
          "type": "uint256"
        }
      ],
      "name": "tokenAttributes",
      "outputs": [
        {
          "internalType": "string",
          "name": "name",
          "type": "string"
        },
        {
          "internalType": "string",
          "name": "description",
          "type": "string"
        },
        {
          "internalType": "uint8",
          "name": "rarity",
          "type": "uint8"
        },
        {
          "internalType": "uint256",
          "name": "attack",
          "type": "uint256"
        },
        {
          "internalType": "uint256",
          "name": "defense",
          "type": "uint256"
        }
      ],
      "stateMutability": "view",
      "type": "function"
    },
    {
      "inputs": [
        {
          "internalType": "uint256",
          "name": "tokenId",
          "type": "uint256"
        }
      ],
      "name": "tokenURI",
      "outputs": [
        {
          "internalType": "string",
          "name": "",
          "type": "string"
        }
      ],
      "stateMutability": "view",
      "type": "function"
    },
    {
      "inputs": [
        {
          "internalType": "address",
          "name": "from",
          "type": "address"
        },
        {
          "internalType": "address",
          "name": "to",
          "type": "address"
        },
        {
          "internalType": "uint256",
          "name": "tokenId",
          "type": "uint256"
        }
      ],
      "name": "transferFrom",
      "outputs": [],
      "stateMutability": "nonpayable",
      "type": "function"
    }
  ],
  "bytecode": "0x608060405234801562000010575f80fd5b506040518060400160405280600781526020016612195c9bd3919560ca1b8152506040518060400160405280600381526020016212139560ea1b815250815f90816200005d919062000201565b5060016200006c828262000201565b506200007d91505f905033620000b1565b50620000aa7f9f2df0fed2c77648de5860a4cc508cd0818c85b8b8a1ab4ceeef8d981c8956a633620000b1565b50620002c9565b5f8281526007602090815260408083206001600160a01b038516845290915281205460ff1662000158575f8381526007602090815260408083206001600160a01b03861684529091529020805460ff191660011790556200010f3390565b6001600160a01b0316826001600160a01b0316847f2f8788117e7eff1d82e926ec794901d17c78024a50270940304540a733656f0d60405160405180910390a45060016200015b565b505f5b92915050565b634e487b7160e01b5f52604160045260245ffd5b600181811c908216806200018a57607f821691505b602082108103620001a957634e487b7160e01b5f52602260045260245ffd5b50919050565b601f821115620001fc575f81815260208120601f850160051c81016020861015620001d75750805b601f850160051c820191505b81811015620001f857828155600101620001e3565b5050505b505050565b81516001600160401b038111156200021d576200021d62000161565b62000235816200022e845462000175565b84620001af565b602080601f8311600181146200026b575f8415620002535750858301515b5f19600386901b1c1916600185901b178555620001f8565b5f85815260208120601f198616915b828110156200029b578886015182559484019460019091019084016200027a565b5085821015620002b957878501515f19600388901b60f8161c191681555b5050505050600190811b01905550565b611ccc80620002d75f395ff3fe608060405234801561000f575f80fd5b506004361061016d575f3560e01c806370a08231116100d9578063b88d4fde11610093578063d53913931161006e578063d53913931461033a578063d547741f14610361578063e985e9c514610374578063f2824b5314610387575f80fd5b8063b88d4fde14610301578063c87b56dd14610314578063d001120114610327575f80fd5b806370a08231146102b057806375794a3c146102c357806391d14854146102cc57806395d89b41146102df578063a217fddf146102e7578063a22cb465146102ee575f80fd5b8063248a9ca31161012a578063248a9ca3146102215780632f2ff15d1461025157806336568abe1461026457806342842e0e1461027757806342966c681461028a5780636352211e1461029d575f80fd5b806301ffc9a71461017157806306fdde0314610199578063081812fc146101ae578063095ea7b3146101d95780631f4f5a23146101ee57806323b872dd1461020e575b5f80fd5b61018461017f366004611677565b6103ab565b60405190151581526020015b60405180910390f35b6101a16103bb565b60405161019091906116df565b6101c16101bc3660046116f1565b61044a565b6040516001600160a01b039091168152602001610190565b6101ec6101e7366004611723565b610471565b005b6102016101fc3660046116f1565b610480565b604051610190919061174b565b6101ec61021c3660046117b1565b610611565b61024361022f3660046116f1565b5f9081526007602052604090206001015490565b604051908152602001610190565b6101ec61025f3660046117ea565b61069f565b6101ec6102723660046117ea565b6106c3565b6101ec6102853660046117b1565b6106fb565b6101ec6102983660046116f1565b610715565b6101c16102ab3660046116f1565b61078c565b6102436102be366004611814565b610796565b61024360085481565b6101846102da3660046117ea565b6107db565b6101a1610805565b6102435f81565b6101ec6102fc36600461182d565b610814565b6101ec61030f3660046118ed565b61081f565b6101a16103223660046116f1565b610836565b6101ec610335366004611982565b610941565b6102437f9f2df0fed2c77648de5860a4cc508cd0818c85b8b8a1ab4ceeef8d981c8956a681565b6101ec61036f3660046117ea565b610afc565b610184610382366004611a3f565b610b20565b61039a6103953660046116f1565b610b4d565b604051610190959493929190611a67565b5f6103b582610c8c565b92915050565b60605f80546103c990611aac565b80601f01602080910402602001604051908101604052809291908181526020018280546103f590611aac565b80156104405780601f1061041757610100808354040283529160200191610440565b820191905f5260205f20905b81548152906001019060200180831161042357829003601f168201915b5050505050905090565b5f61045482610cb0565b505f828152600460205260409020546001600160a01b03166103b5565b61047c828233610ce8565b5050565b6104b26040518060a0016040528060608152602001606081526020015f60ff1681526020015f81526020015f81525090565b5f8281526009602052604090819020815160a081019092528054829082906104d990611aac565b80601f016020809104026020016040519081016040528092919081815260200182805461050590611aac565b80156105505780601f1061052757610100808354040283529160200191610550565b820191905f5260205f20905b81548152906001019060200180831161053357829003601f168201915b5050505050815260200160018201805461056990611aac565b80601f016020809104026020016040519081016040528092919081815260200182805461059590611aac565b80156105e05780601f106105b7576101008083540402835291602001916105e0565b820191905f5260205f20905b8154815290600101906020018083116105c357829003601f168201915b5050509183525050600282015460ff1660208201526003820154604082015260049091015460609091015292915050565b6001600160a01b03821661063f57604051633250574960e11b81525f60048201526024015b60405180910390fd5b5f61064b838333610cf5565b9050836001600160a01b0316816001600160a01b031614610699576040516364283d7b60e01b81526001600160a01b0380861660048301526024820184905282166044820152606401610636565b50505050565b5f828152600760205260409020600101546106b981610de7565b6106998383610df4565b6001600160a01b03811633146106ec5760405163334bd91960e11b815260040160405180910390fd5b6106f68282610e85565b505050565b6106f683838360405180602001604052805f81525061081f565b7f9f2df0fed2c77648de5860a4cc508cd0818c85b8b8a1ab4ceeef8d981c8956a661073f81610de7565b61074882610ef0565b5f828152600960205260408120906107608282611618565b61076d600183015f611618565b5060028101805460ff191690555f600382018190556004909101555050565b5f6103b582610cb0565b5f6001600160a01b0382166107c0576040516322718ad960e21b81525f6004820152602401610636565b506001600160a01b03165f9081526003602052604090205490565b5f9182526007602090815260408084206001600160a01b0393909316845291905290205460ff1690565b6060600180546103c990611aac565b61047c338383610f28565b61082a848484610611565b61069984848484610fc6565b606061084182610cb0565b505f828152600660205260408120805461085a90611aac565b80601f016020809104026020016040519081016040528092919081815260200182805461088690611aac565b80156108d15780601f106108a8576101008083540402835291602001916108d1565b820191905f5260205f20905b8154815290600101906020018083116108b457829003601f168201915b505050505090505f6108ed60408051602081019091525f815290565b905080515f036108fe575092915050565b815115610930578082604051602001610918929190611ae4565b60405160208183030381529060405292505050919050565b610939846110ec565b949350505050565b7f9f2df0fed2c77648de5860a4cc508cd0818c85b8b8a1ab4ceeef8d981c8956a661096b81610de7565b60038460ff1611156109b45760405162461bcd60e51b8152602060048201526012602482015271526172697479206d75737420626520302d3360701b6044820152606401610636565b5f8751116109fa5760405162461bcd60e51b81526020600482015260136024820152725552492063616e6e6f7420626520656d70747960681b6044820152606401610636565b600880545f9182610a0a83611b12565b919050559050610a1a898261115d565b610a248189611176565b6040805160a081018252888152602080820189905260ff88168284015260608201879052608082018690525f84815260099091529190912081518190610a6a9082611b83565b5060208201516001820190610a7f9082611b83565b5060408281015160028301805460ff191660ff928316179055606084015160038401556080909301516004909201919091555190861681526001600160a01b038a169082907f1ebfdd1669f6bdf9d8c1eeb8f7ec60bae46400007d575fd508be533aa0961aa39060200160405180910390a3505050505050505050565b5f82815260076020526040902060010154610b1681610de7565b6106998383610e85565b6001600160a01b039182165f90815260056020908152604080832093909416825291909152205460ff1690565b60096020525f9081526040902080548190610b6790611aac565b80601f0160208091040260200160405190810160405280929190818152602001828054610b9390611aac565b8015610bde5780601f10610bb557610100808354040283529160200191610bde565b820191905f5260205f20905b815481529060010190602001808311610bc157829003601f168201915b505050505090806001018054610bf390611aac565b80601f0160208091040260200160405190810160405280929190818152602001828054610c1f90611aac565b8015610c6a5780601f10610c4157610100808354040283529160200191610c6a565b820191905f5260205f20905b815481529060010190602001808311610c4d57829003601f168201915b5050505060028301546003840154600490940154929360ff9091169290915085565b5f6001600160e01b03198216637965db0b60e01b14806103b557506103b5826111c5565b5f818152600260205260408120546001600160a01b0316806103b557604051637e27328960e01b815260048101849052602401610636565b6106f683838360016111e9565b5f828152600260205260408120546001600160a01b0390811690831615610d2157610d218184866112ed565b6001600160a01b03811615610d5b57610d3c5f855f806111e9565b6001600160a01b0381165f90815260036020526040902080545f190190555b6001600160a01b03851615610d89576001600160a01b0385165f908152600360205260409020805460010190555b5f8481526002602052604080822080546001600160a01b0319166001600160a01b0389811691821790925591518793918516917fddf252ad1be2c89b69c2b068fc378daa952ba7f163c4a11628f55a4df523b3ef91a4949350505050565b610df18133611351565b50565b5f610dff83836107db565b610e7e575f8381526007602090815260408083206001600160a01b03861684529091529020805460ff19166001179055610e363390565b6001600160a01b0316826001600160a01b0316847f2f8788117e7eff1d82e926ec794901d17c78024a50270940304540a733656f0d60405160405180910390a45060016103b5565b505f6103b5565b5f610e9083836107db565b15610e7e575f8381526007602090815260408083206001600160a01b0386168085529252808320805460ff1916905551339286917ff6391f5c32d9c69d2a47ea670b442974b53935d1edc7fd64eb21e047a839171b9190a45060016103b5565b5f610efc5f835f610cf5565b90506001600160a01b03811661047c57604051637e27328960e01b815260048101839052602401610636565b6001600160a01b038216610f5a57604051630b61174360e31b81526001600160a01b0383166004820152602401610636565b6001600160a01b038381165f81815260056020908152604080832094871680845294825291829020805460ff191686151590811790915591519182527f17307eab39ab6107e8899845ad3d59bd9653f200f220920489ca2b5937696c31910160405180910390a3505050565b6001600160a01b0383163b1561069957604051630a85bd0160e11b81526001600160a01b0384169063150b7a0290611008903390889087908790600401611c3f565b6020604051808303815f875af1925050508015611042575060408051601f3d908101601f1916820190925261103f91810190611c7b565b60015b6110a9573d80801561106f576040519150601f19603f3d011682016040523d82523d5f602084013e611074565b606091505b5080515f036110a157604051633250574960e11b81526001600160a01b0385166004820152602401610636565b805181602001fd5b6001600160e01b03198116630a85bd0160e11b146110e557604051633250574960e11b81526001600160a01b0385166004820152602401610636565b5050505050565b60606110f782610cb0565b505f61110d60408051602081019091525f815290565b90505f81511161112b5760405180602001604052805f815250611156565b806111358461138a565b604051602001611146929190611ae4565b6040516020818303038152906040525b9392505050565b61047c828260405180602001604052805f81525061141a565b5f82815260066020526040902061118d8282611b83565b506040518281527ff8e1a15aba9398e019f0b49df1a4fde98ee17ae345cb5f6b5e2c27f5033e8ce79060200160405180910390a15050565b5f6001600160e01b03198216632483248360e11b14806103b557506103b582611430565b80806111fd57506001600160a01b03821615155b156112be575f61120c84610cb0565b90506001600160a01b038316158015906112385750826001600160a01b0316816001600160a01b031614155b801561124b57506112498184610b20565b155b156112745760405163a9fbf51f60e01b81526001600160a01b0384166004820152602401610636565b81156112bc5783856001600160a01b0316826001600160a01b03167f8c5be1e5ebec7d5bd14f71427d1e84f3dd0314c0f7b2291e5b200ac8c7c3b92560405160405180910390a45b505b50505f90815260046020526040902080546001600160a01b0319166001600160a01b0392909216919091179055565b6112f883838361147f565b6106f6576001600160a01b03831661132657604051637e27328960e01b815260048101829052602401610636565b60405163177e802f60e01b81526001600160a01b038316600482015260248101829052604401610636565b61135b82826107db565b61047c5760405163e2517d3f60e01b81526001600160a01b038216600482015260248101839052604401610636565b60605f611396836114e0565b60010190505f8167ffffffffffffffff8111156113b5576113b5611866565b6040519080825280601f01601f1916602001820160405280156113df576020820181803683370190505b5090508181016020015b5f19016f181899199a1a9b1b9c1cb0b131b232b360811b600a86061a8153600a85049450846113e957509392505050565b61142483836115b7565b6106f65f848484610fc6565b5f6001600160e01b031982166380ac58cd60e01b148061146057506001600160e01b03198216635b5e139f60e01b145b806103b557506301ffc9a760e01b6001600160e01b03198316146103b5565b5f6001600160a01b038316158015906109395750826001600160a01b0316846001600160a01b031614806114b857506114b88484610b20565b806109395750505f908152600460205260409020546001600160a01b03908116911614919050565b5f8072184f03e93ff9f4daa797ed6e38ed64bf6a1f0160401b831061151e5772184f03e93ff9f4daa797ed6e38ed64bf6a1f0160401b830492506040015b6d04ee2d6d415b85acef8100000000831061154a576d04ee2d6d415b85acef8100000000830492506020015b662386f26fc10000831061156857662386f26fc10000830492506010015b6305f5e1008310611580576305f5e100830492506008015b612710831061159457612710830492506004015b606483106115a6576064830492506002015b600a83106103b55760010192915050565b6001600160a01b0382166115e057604051633250574960e11b81525f6004820152602401610636565b5f6115ec83835f610cf5565b90506001600160a01b038116156106f6576040516339e3563760e11b81525f6004820152602401610636565b50805461162490611aac565b5f825580601f10611633575050565b601f0160209004905f5260205f2090810190610df191905b8082111561165e575f815560010161164b565b5090565b6001600160e01b031981168114610df1575f80fd5b5f60208284031215611687575f80fd5b813561115681611662565b5f5b838110156116ac578181015183820152602001611694565b50505f910152565b5f81518084526116cb816020860160208601611692565b601f01601f19169290920160200192915050565b602081525f61115660208301846116b4565b5f60208284031215611701575f80fd5b5035919050565b80356001600160a01b038116811461171e575f80fd5b919050565b5f8060408385031215611734575f80fd5b61173d83611708565b946020939093013593505050565b602081525f825160a0602084015261176660c08401826116b4565b90506020840151601f1984830301604085015261178382826116b4565b91505060ff604085015116606084015260608401516080840152608084015160a08401528091505092915050565b5f805f606084860312156117c3575f80fd5b6117cc84611708565b92506117da60208501611708565b9150604084013590509250925092565b5f80604083850312156117fb575f80fd5b8235915061180b60208401611708565b90509250929050565b5f60208284031215611824575f80fd5b61115682611708565b5f806040838503121561183e575f80fd5b61184783611708565b91506020830135801515811461185b575f80fd5b809150509250929050565b634e487b7160e01b5f52604160045260245ffd5b5f67ffffffffffffffff8084111561189457611894611866565b604051601f8501601f19908116603f011681019082821181831017156118bc576118bc611866565b816040528093508581528686860111156118d4575f80fd5b858560208301375f602087830101525050509392505050565b5f805f8060808587031215611900575f80fd5b61190985611708565b935061191760208601611708565b925060408501359150606085013567ffffffffffffffff811115611939575f80fd5b8501601f81018713611949575f80fd5b6119588782356020840161187a565b91505092959194509250565b5f82601f830112611973575f80fd5b6111568383356020850161187a565b5f805f805f805f60e0888a031215611998575f80fd5b6119a188611708565b9650602088013567ffffffffffffffff808211156119bd575f80fd5b6119c98b838c01611964565b975060408a01359150808211156119de575f80fd5b6119ea8b838c01611964565b965060608a01359150808211156119ff575f80fd5b50611a0c8a828b01611964565b945050608088013560ff81168114611a22575f80fd5b9699959850939692959460a0840135945060c09093013592915050565b5f8060408385031215611a50575f80fd5b611a5983611708565b915061180b60208401611708565b60a081525f611a7960a08301886116b4565b8281036020840152611a8b81886116b4565b60ff9690961660408401525050606081019290925260809091015292915050565b600181811c90821680611ac057607f821691505b602082108103611ade57634e487b7160e01b5f52602260045260245ffd5b50919050565b5f8351611af5818460208801611692565b835190830190611b09818360208801611692565b01949350505050565b5f60018201611b2f57634e487b7160e01b5f52601160045260245ffd5b5060010190565b601f8211156106f6575f81815260208120601f850160051c81016020861015611b5c5750805b601f850160051c820191505b81811015611b7b57828155600101611b68565b505050505050565b815167ffffffffffffffff811115611b9d57611b9d611866565b611bb181611bab8454611aac565b84611b36565b602080601f831160018114611be4575f8415611bcd5750858301515b5f19600386901b1c1916600185901b178555611b7b565b5f85815260208120601f198616915b82811015611c1257888601518255948401946001909101908401611bf3565b5085821015611c2f57878501515f19600388901b60f8161c191681555b5050505050600190811b01905550565b6001600160a01b03858116825284166020820152604081018390526080606082018190525f90611c71908301846116b4565b9695505050505050565b5f60208284031215611c8b575f80fd5b81516111568161166256fea2646970667358221220465599025b242ef99ded202b5a4d8ecce0319a17881298cb4c6d56d4c040d1b464736f6c63430008140033",
  "linkReferences": {},
  "deployedLinkReferences": {},
  "immutableReferences": {},
  "inputSourceName": "project/contracts/NFTCollection.sol",
  "buildInfoId": "solc-0_8_20-b22566dbb4ebef95b90b89367f00be50627c24f9"
}