{
  "_format": "hh3-artifact-1",
  "contractName": "BlindBox",
  "sourceName": "contracts/BlindBox.sol",
  "abi": [
    {
      "inputs": [
        {
          "internalType": "address",
          "name": "_gameToken",
          "type": "address"
        },
        {
          "internalType": "address",
          "name": "_nftCollection",
          "type": "address"
        },
        {
          "internalType": "uint256",
          "name": "_ticketPrice",
          "type": "uint256"
        },
        {
          "internalType": "string",
          "name": "_metadataCID",
          "type": "string"
        }
      ],
      "stateMutability": "nonpayable",
      "type": "constructor"
    },
    {
      "inputs": [],
      "name": "AccessControlBadConfirmation",
      "type": "error"
    },
    {
      "inputs": [
        {
          "internalType": "address",
          "name": "account",
          "type": "address"
        },
        {
          "internalType": "bytes32",
          "name": "neededRole",
          "type": "bytes32"
        }
      ],
      "name": "AccessControlUnauthorizedAccount",
      "type": "error"
    },
    {
      "anonymous": false,
      "inputs": [
        {
          "indexed": true,
          "internalType": "address",
          "name": "user",
          "type": "address"
        },
        {
          "indexed": true,
          "internalType": "uint256",
          "name": "tokenId",
          "type": "uint256"
        },
        {
          "indexed": false,
          "internalType": "uint8",
          "name": "rarity",
          "type": "uint8"
        }
      ],
      "name": "CardDrawn",
      "type": "event"
    },
    {
      "anonymous": false,
      "inputs": [
        {
          "indexed": true,
          "internalType": "bytes32",
          "name": "role",
          "type": "bytes32"
        },
        {
          "indexed": true,
          "internalType": "bytes32",
          "name": "previousAdminRole",
          "type": "bytes32"
        },
        {
          "indexed": true,
          "internalType": "bytes32",
          "name": "newAdminRole",
          "type": "bytes32"
        }
      ],
      "name": "RoleAdminChanged",
      "type": "event"
    },
    {
      "anonymous": false,
      "inputs": [
        {
          "indexed": true,
          "internalType": "bytes32",
          "name": "role",
          "type": "bytes32"
        },
        {
          "indexed": true,
          "internalType": "address",
          "name": "account",
          "type": "address"
        },
        {
          "indexed": true,
          "internalType": "address",
          "name": "sender",
          "type": "address"
        }
      ],
      "name": "RoleGranted",
      "type": "event"
    },
    {
      "anonymous": false,
      "inputs": [
        {
          "indexed": true,
          "internalType": "bytes32",
          "name": "role",
          "type": "bytes32"
        },
        {
          "indexed": true,
          "internalType": "address",
          "name": "account",
          "type": "address"
        },
        {
          "indexed": true,
          "internalType": "address",
          "name": "sender",
          "type": "address"
        }
      ],
      "name": "RoleRevoked",
      "type": "event"
    },
    {
      "anonymous": false,
      "inputs": [
        {
          "indexed": true,
          "internalType": "address",
          "name": "user",
          "type": "address"
        },
        {
          "indexed": false,
          "internalType": "uint256",
          "name": "ticketCount",
          "type": "uint256"
        }
      ],
      "name": "TicketPurchased",
      "type": "event"
    },
    {
      "inputs": [],
      "name": "ADMIN_ROLE",
      "outputs": [
        {
          "internalType": "bytes32",
          "name": "",
          "type": "bytes32"
        }
      ],
      "stateMutability": "view",
      "type": "function"
    },
    {
      "inputs": [],
      "name": "DEFAULT_ADMIN_ROLE",
      "outputs": [
        {
          "internalType": "bytes32",
          "name": "",
          "type": "bytes32"
        }
      ],
      "stateMutability": "view",
      "type": "function"
    },
    {
      "inputs": [
        {
          "internalType": "uint256",
          "name": "ticketCount",
          "type": "uint256"
        }
      ],
      "name": "buyTicket",
      "outputs": [],
      "stateMutability": "nonpayable",
      "type": "function"
    },
    {
      "inputs": [],
      "name": "drawCard",
      "outputs": [],
      "stateMutability": "nonpayable",
      "type": "function"
    },
    {
      "inputs": [],
      "name": "gameToken",
      "outputs": [
        {
          "internalType": "contract ERC20Token",
          "name": "",
          "type": "address"
        }
      ],
      "stateMutability": "view",
      "type": "function"
    },
    {
      "inputs": [
        {
          "internalType": "bytes32",
          "name": "role",
          "type": "bytes32"
        }
      ],
      "name": "getRoleAdmin",
      "outputs": [
        {
          "internalType": "bytes32",
          "name": "",
          "type": "bytes32"
        }
      ],
      "stateMutability": "view",
      "type": "function"
    },
    {
      "inputs": [
        {
          "internalType": "bytes32",
          "name": "role",
          "type": "bytes32"
        },
        {
          "internalType": "address",
          "name": "account",
          "type": "address"
        }
      ],
      "name": "grantRole",
      "outputs": [],
      "stateMutability": "nonpayable",
      "type": "function"
    },
    {
      "inputs": [
        {
          "internalType": "bytes32",
          "name": "role",
          "type": "bytes32"
        },
        {
          "internalType": "address",
          "name": "account",
          "type": "address"
        }
      ],
      "name": "hasRole",
      "outputs": [
        {
          "internalType": "bool",
          "name": "",
          "type": "bool"
        }
      ],
      "stateMutability": "view",
      "type": "function"
    },
    {
      "inputs": [],
      "name": "metadataCID",
      "outputs": [
        {
          "internalType": "string",
          "name": "",
          "type": "string"
        }
      ],
      "stateMutability": "view",
      "type": "function"
    },
    {
      "inputs": [],
      "name": "nftCollection",
      "outputs": [
        {
          "internalType": "contract NFTCollection",
          "name": "",
          "type": "address"
        }
      ],
      "stateMutability": "view",
      "type": "function"
    },
    {
      "inputs": [
        {
          "internalType": "uint256",
          "name": "",
          "type": "uint256"
        }
      ],
      "name": "raritySupplyLimits",
      "outputs": [
        {
          "internalType": "uint256",
          "name": "",
          "type": "uint256"
        }
      ],
      "stateMutability": "view",
      "type": "function"
    },
    {
      "inputs": [
        {
          "internalType": "bytes32",
          "name": "role",
          "type": "bytes32"
        },
        {
          "internalType": "address",
          "name": "callerConfirmation",
          "type": "address"
        }
      ],
      "name": "renounceRole",
      "outputs": [],
      "stateMutability": "nonpayable",
      "type": "function"
    },
    {
      "inputs": [
        {
          "internalType": "bytes32",
          "name": "role",
          "type": "bytes32"
        },
        {
          "internalType": "address",
          "name": "account",
          "type": "address"
        }
      ],
      "name": "revokeRole",
      "outputs": [],
      "stateMutability": "nonpayable",
      "type": "function"
    },
    {
      "inputs": [
        {
          "internalType": "string",
          "name": "_newCid",
          "type": "string"
        }
      ],
      "name": "setMetadataCID",
      "outputs": [],
      "stateMutability": "nonpayable",
      "type": "function"
    },
    {
      "inputs": [
        {
          "internalType": "uint256[4]",
          "name": "_limits",
          "type": "uint256[4]"
        }
      ],
      "name": "setRaritySupplyLimits",
      "outputs": [],
      "stateMutability": "nonpayable",
      "type": "function"
    },
    {
      "inputs": [
        {
          "internalType": "bytes4",
          "name": "interfaceId",
          "type": "bytes4"
        }
      ],
      "name": "supportsInterface",
      "outputs": [
        {
          "internalType": "bool",
          "name": "",
          "type": "bool"
        }
      ],
      "stateMutability": "view",
      "type": "function"
    },
    {
      "inputs": [],
      "name": "ticketPrice",
      "outputs": [
        {
          "internalType": "uint256",
          "name": "",
          "type": "uint256"
        }
      ],
      "stateMutability": "view",
      "type": "function"
    },
    {
      "inputs": [],
      "name": "totalTicketsSold",
      "outputs": [
        {
          "internalType": "uint256",
          "name": "",
          "type": "uint256"
        }
      ],
      "stateMutability": "view",
      "type": "function"
    },
    {
      "inputs": [
        {
          "internalType": "address",
          "name": "",
          "type": "address"
        }
      ],
      "name": "userTicketCount",
      "outputs": [
        {
          "internalType": "uint256",
          "name": "",
          "type": "uint256"
        }
      ],
      "stateMutability": "view",
      "type": "function"
    },
    {
      "inputs": [],
      "name": "withdrawTokens",
      "outputs": [],
      "stateMutability": "nonpayable",
      "type": "function"
    }
  ],
  "bytecode": "0x610160604052605260e0908152601161010052603661012052601e610140526200002d9060049081620003bf565b5060405180608001604052806040518060400160405280600681526020016531b7b6b6b7b760d11b8152508152602001604051806040016040528060048152602001637261726560e01b8152508152602001604051806040016040528060048152602001636570696360e01b8152508152602001604051806040016040528060098152602001686c6567656e6461727960b81b8152508152506008906004620000d892919062000407565b50348015620000e5575f80fd5b50604051620023dc380380620023dc8339810160408190526200010891620004f5565b6001600160a01b038416158015906200012957506001600160a01b03831615155b6200016f5760405162461bcd60e51b8152602060048201526011602482015270496e76616c69642061646472657373657360781b60448201526064015b60405180910390fd5b5f8211620001c05760405162461bcd60e51b815260206004820152601860248201527f5469636b6574207072696365206d757374206265203e20300000000000000000604482015260640162000166565b5f815111620002125760405162461bcd60e51b815260206004820152601560248201527f4d65746164617461204349442072657175697265640000000000000000000000604482015260640162000166565b6001600160a01b03808516608052831660a05260c082905260036200023882826200067d565b50620002455f3362000287565b50620002727fa49807205ce4d355092ef5a8a18f56e8913cf4a201fbe287825b095693c217753362000287565b506200027d62000333565b50505050620007a9565b5f828152602081815260408083206001600160a01b038516845290915281205460ff166200032a575f838152602081815260408083206001600160a01b03861684529091529020805460ff19166001179055620002e13390565b6001600160a01b0316826001600160a01b0316847f2f8788117e7eff1d82e926ec794901d17c78024a50270940304540a733656f0d60405160405180910390a45060016200032d565b505f5b92915050565b5f5b60048160ff161015620003bc575f60048260ff16600481106200035c576200035c62000745565b0154905060015b818111620003a45760ff83165f908152600d6020908152604082208054600181018255908352912001819055806200039b816200076d565b91505062000363565b50508080620003b39062000788565b91505062000335565b50565b8260048101928215620003f5579160200282015b82811115620003f5578251829060ff16905591602001919060010190620003d3565b506200040392915062000453565b5090565b826004810192821562000445579160200282015b828111156200044557825182906200043490826200067d565b50916020019190600101906200041b565b506200040392915062000469565b5b8082111562000403575f815560010162000454565b8082111562000403575f6200047f828262000489565b5060010162000469565b5080546200049790620005f1565b5f825580601f10620004a7575050565b601f0160209004905f5260205f2090810190620003bc919062000453565b80516001600160a01b0381168114620004dc575f80fd5b919050565b634e487b7160e01b5f52604160045260245ffd5b5f805f806080858703121562000509575f80fd5b6200051485620004c5565b9350602062000525818701620004c5565b6040870151606088015191955093506001600160401b038082111562000549575f80fd5b818801915088601f8301126200055d575f80fd5b815181811115620005725762000572620004e1565b604051601f8201601f19908116603f011681019083821181831017156200059d576200059d620004e1565b816040528281528b86848701011115620005b5575f80fd5b5f93505b82841015620005d85784840186015181850187015292850192620005b9565b5f86848301015280965050505050505092959194509250565b600181811c908216806200060657607f821691505b6020821081036200062557634e487b7160e01b5f52602260045260245ffd5b50919050565b601f82111562000678575f81815260208120601f850160051c81016020861015620006535750805b601f850160051c820191505b8181101562000674578281556001016200065f565b5050505b505050565b81516001600160401b03811115620006995762000699620004e1565b620006b181620006aa8454620005f1565b846200062b565b602080601f831160018114620006e7575f8415620006cf5750858301515b5f19600386901b1c1916600185901b17855562000674565b5f85815260208120601f198616915b828110156200071757888601518255948401946001909101908401620006f6565b50858210156200073557878501515f19600388901b60f8161c191681555b5050505050600190811b01905550565b634e487b7160e01b5f52603260045260245ffd5b634e487b7160e01b5f52601160045260245ffd5b5f6001820162000781576200078162000759565b5060010190565b5f60ff821660ff8103620007a057620007a062000759565b60010192915050565b60805160a05160c051611bd06200080c5f395f8181610158015261087a01525f8181610223015281816105d3015261067a01525f81816102be015281816108c00152818161098b01528181610a6501528181610d700152610e000152611bd05ff3fe608060405234801561000f575f80fd5b5060043610610127575f3560e01c80636588103b116100a957806391d148541161006e57806391d148541461029f578063a217fddf146102b2578063c3dfdae6146102b9578063cb87ce67146102e0578063d547741f146102ff575f80fd5b80636588103b1461021e57806367dd74ca1461025d57806375b238fc146102705780637c96b0de146102845780638d8f2adb14610297575f80fd5b80632f5be23e116100ef5780632f5be23e146101d257806334701db8146101da57806336568abe146101e357806358068534146101f657806358871c4614610209575f80fd5b806301ffc9a71461012b5780631209b1f614610153578063248a9ca3146101885780632edb5844146101aa5780632f2ff15d146101bf575b5f80fd5b61013e61013936600461159d565b610312565b60405190151581526020015b60405180910390f35b61017a7f000000000000000000000000000000000000000000000000000000000000000081565b60405190815260200161014a565b61017a6101963660046115cb565b5f9081526020819052604090206001015490565b6101bd6101b83660046115e2565b610348565b005b6101bd6101cd366004611669565b6103bc565b6101bd6103e0565b61017a60015481565b6101bd6101f1366004611669565b61074a565b61017a6102043660046115cb565b610782565b610211610798565b60405161014a91906116e0565b6102457f000000000000000000000000000000000000000000000000000000000000000081565b6040516001600160a01b03909116815260200161014a565b6101bd61026b3660046115cb565b610824565b61017a5f80516020611b7b83398151915281565b6101bd6102923660046116f2565b610b4c565b6101bd610d42565b61013e6102ad366004611669565b610e72565b61017a5f81565b6102457f000000000000000000000000000000000000000000000000000000000000000081565b61017a6102ee366004611717565b60026020525f908152604090205481565b6101bd61030d366004611669565b610e9a565b5f6001600160e01b03198216637965db0b60e01b148061034257506301ffc9a760e01b6001600160e01b03198316145b92915050565b5f80516020611b7b83398151915261035f81610ebe565b816103a95760405162461bcd60e51b815260206004820152601560248201527413595d1859185d184810d251081c995c5d5a5c9959605a1b60448201526064015b60405180910390fd5b60036103b68385836117c3565b50505050565b5f828152602081905260409020600101546103d681610ebe565b6103b68383610ecb565b335f9081526002602052604090205461042d5760405162461bcd60e51b815260206004820152600f60248201526e139bc81d1a58dad95d1cc81b19599d608a1b60448201526064016103a0565b335f90815260026020526040812080546001929061044c908490611893565b909155505f905061045b610f5a565b90505f805f61046984610fa3565b9250925092505f6003805461047d90611744565b9050116104c35760405162461bcd60e51b815260206004820152601460248201527313595d1859185d184810d251081b9bdd081cd95d60621b60448201526064016103a0565b5f6104cd8561113a565b60ff86165f908152600c6020526040812080549293506001929091906104f49084906118a6565b909155505f9050600860ff871660048110610511576105116118b9565b01805461051d90611744565b80601f016020809104026020016040519081016040528092919081815260200182805461054990611744565b80156105945780601f1061056b57610100808354040283529160200191610594565b820191905f5260205f20905b81548152906001019060200180831161057757829003601f168201915b505050505090505f6105a583611255565b90505f60038384846040516020016105c094939291906118e8565b60405160208183030381529060405290507f00000000000000000000000000000000000000000000000000000000000000006001600160a01b031663d001120133838a8b60405160200161061491906119d5565b6040516020818303038152906040528d8c8c6040518863ffffffff1660e01b81526004016106489796959493929190611a07565b5f604051808303815f87803b15801561065f575f80fd5b505af1158015610671573d5f803e3d5ffd5b505050505f60017f00000000000000000000000000000000000000000000000000000000000000006001600160a01b03166375794a3c6040518163ffffffff1660e01b8152600401602060405180830381865afa1580156106d4573d5f803e3d5ffd5b505050506040513d601f19601f820116820180604052508101906106f89190611a73565b6107029190611893565b60405160ff8b168152909150819033907f9a5b851bd1e07225f1305de2ea526cdd4413e3b121eebe24f1d40505b6dacdf99060200160405180910390a3505050505050505050565b6001600160a01b03811633146107735760405163334bd91960e11b815260040160405180910390fd5b61077d82826112fe565b505050565b60048160048110610791575f80fd5b0154905081565b600380546107a590611744565b80601f01602080910402602001604051908101604052809291908181526020018280546107d190611744565b801561081c5780601f106107f35761010080835404028352916020019161081c565b820191905f5260205f20905b8154815290600101906020018083116107ff57829003601f168201915b505050505081565b5f81116108735760405162461bcd60e51b815260206004820152601860248201527f5469636b657420636f756e74206d757374206265203e2030000000000000000060448201526064016103a0565b5f61089e827f0000000000000000000000000000000000000000000000000000000000000000611a8a565b6040516370a0823160e01b815233600482015290915081906001600160a01b037f000000000000000000000000000000000000000000000000000000000000000016906370a0823190602401602060405180830381865afa158015610905573d5f803e3d5ffd5b505050506040513d601f19601f820116820180604052508101906109299190611a73565b101561096e5760405162461bcd60e51b8152602060048201526014602482015273496e73756666696369656e742062616c616e636560601b60448201526064016103a0565b604051636eb1769f60e11b815233600482015230602482015281907f00000000000000000000000000000000000000000000000000000000000000006001600160a01b03169063dd62ed3e90604401602060405180830381865afa1580156109d8573d5f803e3d5ffd5b505050506040513d601f19601f820116820180604052508101906109fc9190611a73565b1015610a435760405162461bcd60e51b8152602060048201526016602482015275496e73756666696369656e7420616c6c6f77616e636560501b60448201526064016103a0565b6040516323b872dd60e01b8152336004820152306024820152604481018290527f00000000000000000000000000000000000000000000000000000000000000006001600160a01b0316906323b872dd906064016020604051808303815f875af1158015610ab3573d5f803e3d5ffd5b505050506040513d601f19601f82011682018060405250810190610ad79190611aa1565b50335f9081526002602052604081208054849290610af69084906118a6565b925050819055508160015f828254610b0e91906118a6565b909155505060405182815233907f0668f5b446eb814fe35b3206f43f14bd8567ba04ddaf7a3ee56516929ab22ccb9060200160405180910390a25050565b5f80516020611b7b833981519152610b6381610ebe565b5f5b60048160ff16101561077d5760ff81165f818152600c602052604090205490849060048110610b9657610b966118b9565b60200201351015610be95760405162461bcd60e51b815260206004820152601d60248201527f4e6577206c696d69742062656c6f77206d696e74656420737570706c7900000060448201526064016103a0565b60048160ff1660048110610bff57610bff6118b9565b0154838260ff1660048110610c1657610c166118b9565b602002013514610cfe5760ff81165f908152600c602052604090205415610c895760405162461bcd60e51b815260206004820152602160248201527f43616e6e6f74206368616e6765206c696d6974206166746572206d696e74696e6044820152606760f81b60648201526084016103a0565b60ff81165f908152600d60205260408120610ca39161156f565b60015b838260ff1660048110610cbb57610cbb6118b9565b60200201358111610cfc5760ff82165f908152600d602090815260408220805460018101825590835291200181905580610cf481611ac0565b915050610ca6565b505b828160ff1660048110610d1357610d136118b9565b602002013560048260ff1660048110610d2e57610d2e6118b9565b015580610d3a81611ad8565b915050610b65565b5f80516020611b7b833981519152610d5981610ebe565b6040516370a0823160e01b81523060048201525f907f00000000000000000000000000000000000000000000000000000000000000006001600160a01b0316906370a0823190602401602060405180830381865afa158015610dbd573d5f803e3d5ffd5b505050506040513d601f19601f82011682018060405250810190610de19190611a73565b60405163a9059cbb60e01b8152336004820152602481018290529091507f00000000000000000000000000000000000000000000000000000000000000006001600160a01b03169063a9059cbb906044016020604051808303815f875af1158015610e4e573d5f803e3d5ffd5b505050506040513d601f19601f8201168201806040525081019061077d9190611aa1565b5f918252602082815260408084206001600160a01b0393909316845291905290205460ff1690565b5f82815260208190526040902060010154610eb481610ebe565b6103b683836112fe565b610ec88133611367565b50565b5f610ed68383610e72565b610f53575f838152602081815260408083206001600160a01b03861684529091529020805460ff19166001179055610f0b3390565b6001600160a01b0316826001600160a01b0316847f2f8788117e7eff1d82e926ec794901d17c78024a50270940304540a733656f0d60405160405180910390a4506001610342565b505f610342565b5f80610f6760645f6113a4565b9050603c811015610f79575f91505090565b605a811015610f8a57600191505090565b6062811015610f9b57600291505090565b600391505090565b60605f808360ff165f0361100e57610fbc600a5f6113a4565b610fc790600a6118a6565b610fd260055f6113a4565b610fdd9060056118a6565b60408051808201909152600e81526d21b7b6b6b7b7102bb0b93934b7b960911b602082015294509092509050611133565b8360ff1660010361107157611024600a5f6113a4565b61102f9060196118a6565b61103a60055f6113a4565b61104590600a6118a6565b60408051808201909152600981526852617265204d61676560b81b602082015294509092509050611133565b8360ff166002036110d857611087600f5f6113a4565b6110929060286118a6565b61109d600a5f6113a4565b6110a890600f6118a6565b60408051808201909152600d81526c22b834b19020b9b9b0b9b9b4b760991b602082015294509092509050611133565b6110e360145f6113a4565b6110ee90603c6118a6565b6110f9600f5f6113a4565b61110490601e6118a6565b60408051808201909152601081526f2632b3b2b73230b93c90223930b3b7b760811b6020820152945090925090505b9193909250565b60ff81165f908152600d6020526040812080548061119a5760405162461bcd60e51b815260206004820152601d60248201527f4d657461646174612065786861757374656420666f722072617269747900000060448201526064016103a0565b60ff84165f908152600c60205260408120546111b79083906113a4565b90505f6111c5600184611893565b90505f8483815481106111da576111da6118b9565b905f5260205f2001549050818314611225578482815481106111fe576111fe6118b9565b905f5260205f200154858481548110611219576112196118b9565b5f918252602090912001555b8480548061123557611235611af6565b600190038181905f5260205f20015f905590558095505050505050919050565b60605f821161129b5760405162461bcd60e51b8152602060048201526012602482015271496e646578206f7574206f662072616e676560701b60448201526064016103a0565b600a8210156112d3576112ad82611408565b6040516020016112bd9190611b0a565b6040516020818303038152906040529050919050565b60648210156112f5576112e582611408565b6040516020016112bd9190611b33565b61034282611408565b5f6113098383610e72565b15610f53575f838152602081815260408083206001600160a01b0386168085529252808320805460ff1916905551339286917ff6391f5c32d9c69d2a47ea670b442974b53935d1edc7fd64eb21e047a839171b9190a4506001610342565b6113718282610e72565b6113a05760405163e2517d3f60e01b81526001600160a01b0382166004820152602481018390526044016103a0565b5050565b604080514260208201526bffffffffffffffffffffffff193360601b1691810191909152605481018290524460748201525f90819060940160408051601f19818403018152919052805160209091012090506114008482611b5b565b949350505050565b60605f61141483611498565b60010190505f8167ffffffffffffffff81111561143357611433611730565b6040519080825280601f01601f19166020018201604052801561145d576020820181803683370190505b5090508181016020015b5f19016f181899199a1a9b1b9c1cb0b131b232b360811b600a86061a8153600a850494508461146757509392505050565b5f8072184f03e93ff9f4daa797ed6e38ed64bf6a1f0160401b83106114d65772184f03e93ff9f4daa797ed6e38ed64bf6a1f0160401b830492506040015b6d04ee2d6d415b85acef81000000008310611502576d04ee2d6d415b85acef8100000000830492506020015b662386f26fc10000831061152057662386f26fc10000830492506010015b6305f5e1008310611538576305f5e100830492506008015b612710831061154c57612710830492506004015b6064831061155e576064830492506002015b600a83106103425760010192915050565b5080545f8255905f5260205f2090810190610ec891905b80821115611599575f8155600101611586565b5090565b5f602082840312156115ad575f80fd5b81356001600160e01b0319811681146115c4575f80fd5b9392505050565b5f602082840312156115db575f80fd5b5035919050565b5f80602083850312156115f3575f80fd5b823567ffffffffffffffff8082111561160a575f80fd5b818501915085601f83011261161d575f80fd5b81358181111561162b575f80fd5b86602082850101111561163c575f80fd5b60209290920196919550909350505050565b80356001600160a01b0381168114611664575f80fd5b919050565b5f806040838503121561167a575f80fd5b8235915061168a6020840161164e565b90509250929050565b5f5b838110156116ad578181015183820152602001611695565b50505f910152565b5f81518084526116cc816020860160208601611693565b601f01601f19169290920160200192915050565b602081525f6115c460208301846116b5565b5f60808284031215611702575f80fd5b82608083011115611711575f80fd5b50919050565b5f60208284031215611727575f80fd5b6115c48261164e565b634e487b7160e01b5f52604160045260245ffd5b600181811c9082168061175857607f821691505b60208210810361171157634e487b7160e01b5f52602260045260245ffd5b601f82111561077d575f81815260208120601f850160051c8101602086101561179c5750805b601f850160051c820191505b818110156117bb578281556001016117a8565b505050505050565b67ffffffffffffffff8311156117db576117db611730565b6117ef836117e98354611744565b83611776565b5f601f841160018114611820575f85156118095750838201355b5f19600387901b1c1916600186901b178355611878565b5f83815260209020601f19861690835b828110156118505786850135825560209485019460019092019101611830565b508682101561186c575f1960f88860031b161c19848701351681555b505060018560011b0183555b5050505050565b634e487b7160e01b5f52601160045260245ffd5b818103818111156103425761034261187f565b808201808211156103425761034261187f565b634e487b7160e01b5f52603260045260245ffd5b5f81516118de818560208601611693565b9290920192915050565b66697066733a2f2f60c81b81525f60075f875461190481611744565b6001828116801561191c576001811461193557611965565b60ff198416888701528215158302880186019450611965565b8b5f526020805f205f5b8581101561195a5781548b82018a015290840190820161193f565b505050858389010194505b505050506119c96119b86119b26119a561199f61199261198c87602f60f81b815260010190565b8d6118cd565b602f60f81b815260010190565b8a6118cd565b602d60f81b815260010190565b876118cd565b64173539b7b760d91b815260050190565b98975050505050505050565b5f82516119e6818460208701611693565b6e080b48109b1a5b99109bde08139195608a1b920191825250600f01919050565b6001600160a01b038816815260e0602082018190525f90611a2a908301896116b5565b8281036040840152611a3c81896116b5565b90508281036060840152611a5081886116b5565b60ff969096166080840152505060a081019290925260c090910152949350505050565b5f60208284031215611a83575f80fd5b5051919050565b80820281158282048414176103425761034261187f565b5f60208284031215611ab1575f80fd5b815180151581146115c4575f80fd5b5f60018201611ad157611ad161187f565b5060010190565b5f60ff821660ff8103611aed57611aed61187f565b60010192915050565b634e487b7160e01b5f52603160045260245ffd5b61030360f41b81525f8251611b26816002850160208701611693565b9190910160020192915050565b600360fc1b81525f8251611b4e816001850160208701611693565b9190910160010192915050565b5f82611b7557634e487b7160e01b5f52601260045260245ffd5b50069056fea49807205ce4d355092ef5a8a18f56e8913cf4a201fbe287825b095693c21775a2646970667358221220745d55051066b3961d9f1765ff8fa56f5b1dd10f7c4b211e87ee2ccff271747964736f6c63430008140033",
  "linkReferences": {},
  "deployedLinkReferences": {},
  "immutableReferences": {
    "4109": [
      {
        "length": 32,
        "start": 702
      },
      {
        "length": 32,
        "start": 2240
      },
      {
        "length": 32,
        "start": 2443
      },
      {
        "length": 32,
        "start": 2661
      },
      {
        "length": 32,
        "start": 3440
      },
      {
        "length": 32,
        "start": 3584
      }
    ],
    "4112": [
      {
        "length": 32,
        "start": 547
      },
      {
        "length": 32,
        "start": 1491
      },
      {
        "length": 32,
        "start": 1658
      }
    ],
    "4114": [
      {
        "length": 32,
        "start": 344
      },
      {
        "length": 32,
        "start": 2170
      }
    ]
  },
  "inputSourceName": "project/contracts/BlindBox.sol",
  "buildInfoId": "solc-0_8_20-8b5a7d33765fad32f509f698e61b804db71a7944"
}