{
  "_format": "hh3-artifact-1",
  "contractName": "TokenVendor",
  "sourceName": "contracts/TokenVendor.sol",
  "abi": [
    {
      "inputs": [
        {
          "internalType": "address",
          "name": "tokenAddress",
          "type": "address"
        },
        {
          "internalType": "uint256",
          "name": "rate",
          "type": "uint256"
        }
      ],
      "stateMutability": "nonpayable",
      "type": "constructor"
    },
    {
      "inputs": [],
      "name": "AccessControlBadConfirmation",
      "type": "error"
    },
    {
      "inputs": [
        {
          "internalType": "address",
          "name": "account",
          "type": "address"
        },
        {
          "internalType": "bytes32",
          "name": "neededRole",
          "type": "bytes32"
        }
      ],
      "name": "AccessControlUnauthorizedAccount",
      "type": "error"
    },
    {
      "anonymous": false,
      "inputs": [
        {
          "indexed": true,
          "internalType": "address",
          "name": "to",
          "type": "address"
        },
        {
          "indexed": false,
          "internalType": "uint256",
          "name": "amount",
          "type": "uint256"
        }
      ],
      "name": "EthWithdrawn",
      "type": "event"
    },
    {
      "anonymous": false,
      "inputs": [
        {
          "indexed": false,
          "internalType": "uint256",
          "name": "oldRate",
          "type": "uint256"
        },
        {
          "indexed": false,
          "internalType": "uint256",
          "name": "newRate",
          "type": "uint256"
        }
      ],
      "name": "RateUpdated",
      "type": "event"
    },
    {
      "anonymous": false,
      "inputs": [
        {
          "indexed": true,
          "internalType": "bytes32",
          "name": "role",
          "type": "bytes32"
        },
        {
          "indexed": true,
          "internalType": "bytes32",
          "name": "previousAdminRole",
          "type": "bytes32"
        },
        {
          "indexed": true,
          "internalType": "bytes32",
          "name": "newAdminRole",
          "type": "bytes32"
        }
      ],
      "name": "RoleAdminChanged",
      "type": "event"
    },
    {
      "anonymous": false,
      "inputs": [
        {
          "indexed": true,
          "internalType": "bytes32",
          "name": "role",
          "type": "bytes32"
        },
        {
          "indexed": true,
          "internalType": "address",
          "name": "account",
          "type": "address"
        },
        {
          "indexed": true,
          "internalType": "address",
          "name": "sender",
          "type": "address"
        }
      ],
      "name": "RoleGranted",
      "type": "event"
    },
    {
      "anonymous": false,
      "inputs": [
        {
          "indexed": true,
          "internalType": "bytes32",
          "name": "role",
          "type": "bytes32"
        },
        {
          "indexed": true,
          "internalType": "address",
          "name": "account",
          "type": "address"
        },
        {
          "indexed": true,
          "internalType": "address",
          "name": "sender",
          "type": "address"
        }
      ],
      "name": "RoleRevoked",
      "type": "event"
    },
    {
      "anonymous": false,
      "inputs": [
        {
          "indexed": true,
          "internalType": "address",
          "name": "buyer",
          "type": "address"
        },
        {
          "indexed": false,
          "internalType": "uint256",
          "name": "ethSpent",
          "type": "uint256"
        },
        {
          "indexed": false,
          "internalType": "uint256",
          "name": "tokenAmount",
          "type": "uint256"
        }
      ],
      "name": "TokensPurchased",
      "type": "event"
    },
    {
      "anonymous": false,
      "inputs": [
        {
          "indexed": true,
          "internalType": "address",
          "name": "to",
          "type": "address"
        },
        {
          "indexed": false,
          "internalType": "uint256",
          "name": "amount",
          "type": "uint256"
        }
      ],
      "name": "TokensWithdrawn",
      "type": "event"
    },
    {
      "inputs": [],
      "name": "DEFAULT_ADMIN_ROLE",
      "outputs": [
        {
          "internalType": "bytes32",
          "name": "",
          "type": "bytes32"
        }
      ],
      "stateMutability": "view",
      "type": "function"
    },
    {
      "inputs": [],
      "name": "OPERATOR_ROLE",
      "outputs": [
        {
          "internalType": "bytes32",
          "name": "",
          "type": "bytes32"
        }
      ],
      "stateMutability": "view",
      "type": "function"
    },
    {
      "inputs": [],
      "name": "buyTokens",
      "outputs": [],
      "stateMutability": "payable",
      "type": "function"
    },
    {
      "inputs": [
        {
          "internalType": "bytes32",
          "name": "role",
          "type": "bytes32"
        }
      ],
      "name": "getRoleAdmin",
      "outputs": [
        {
          "internalType": "bytes32",
          "name": "",
          "type": "bytes32"
        }
      ],
      "stateMutability": "view",
      "type": "function"
    },
    {
      "inputs": [
        {
          "internalType": "bytes32",
          "name": "role",
          "type": "bytes32"
        },
        {
          "internalType": "address",
          "name": "account",
          "type": "address"
        }
      ],
      "name": "grantRole",
      "outputs": [],
      "stateMutability": "nonpayable",
      "type": "function"
    },
    {
      "inputs": [
        {
          "internalType": "bytes32",
          "name": "role",
          "type": "bytes32"
        },
        {
          "internalType": "address",
          "name": "account",
          "type": "address"
        }
      ],
      "name": "hasRole",
      "outputs": [
        {
          "internalType": "bool",
          "name": "",
          "type": "bool"
        }
      ],
      "stateMutability": "view",
      "type": "function"
    },
    {
      "inputs": [
        {
          "internalType": "bytes32",
          "name": "role",
          "type": "bytes32"
        },
        {
          "internalType": "address",
          "name": "callerConfirmation",
          "type": "address"
        }
      ],
      "name": "renounceRole",
      "outputs": [],
      "stateMutability": "nonpayable",
      "type": "function"
    },
    {
      "inputs": [
        {
          "internalType": "bytes32",
          "name": "role",
          "type": "bytes32"
        },
        {
          "internalType": "address",
          "name": "account",
          "type": "address"
        }
      ],
      "name": "revokeRole",
      "outputs": [],
      "stateMutability": "nonpayable",
      "type": "function"
    },
    {
      "inputs": [
        {
          "internalType": "uint256",
          "name": "newRate",
          "type": "uint256"
        }
      ],
      "name": "setTokensPerEth",
      "outputs": [],
      "stateMutability": "nonpayable",
      "type": "function"
    },
    {
      "inputs": [
        {
          "internalType": "bytes4",
          "name": "interfaceId",
          "type": "bytes4"
        }
      ],
      "name": "supportsInterface",
      "outputs": [
        {
          "internalType": "bool",
          "name": "",
          "type": "bool"
        }
      ],
      "stateMutability": "view",
      "type": "function"
    },
    {
      "inputs": [],
      "name": "token",
      "outputs": [
        {
          "internalType": "contract IERC20",
          "name": "",
          "type": "address"
        }
      ],
      "stateMutability": "view",
      "type": "function"
    },
    {
      "inputs": [],
      "name": "tokensPerEth",
      "outputs": [
        {
          "internalType": "uint256",
          "name": "",
          "type": "uint256"
        }
      ],
      "stateMutability": "view",
      "type": "function"
    },
    {
      "inputs": [
        {
          "internalType": "address payable",
          "name": "to",
          "type": "address"
        },
        {
          "internalType": "uint256",
          "name": "amount",
          "type": "uint256"
        }
      ],
      "name": "withdrawEth",
      "outputs": [],
      "stateMutability": "nonpayable",
      "type": "function"
    },
    {
      "inputs": [
        {
          "internalType": "address",
          "name": "to",
          "type": "address"
        },
        {
          "internalType": "uint256",
          "name": "amount",
          "type": "uint256"
        }
      ],
      "name": "withdrawTokens",
      "outputs": [],
      "stateMutability": "nonpayable",
      "type": "function"
    },
    {
      "stateMutability": "payable",
      "type": "receive"
    }
  ],
  "bytecode": "0x60a060405234801561000f575f80fd5b50604051610e47380380610e4783398101604081905261002e916101cd565b6001600160a01b0382166100895760405162461bcd60e51b815260206004820152601660248201527f546f6b656e20616464726573732072657175697265640000000000000000000060448201526064015b60405180910390fd5b5f81116100d85760405162461bcd60e51b815260206004820152601560248201527f52617465206d75737420626520706f73697469766500000000000000000000006044820152606401610080565b6100e25f33610124565b5061010d7f97667070c54ef182b0f5858b034beac1b6f3089aa2d3188bb1e8929f4fa9b92933610124565b506001600160a01b03909116608052600155610204565b5f828152602081815260408083206001600160a01b038516845290915281205460ff166101c4575f838152602081815260408083206001600160a01b03861684529091529020805460ff1916600117905561017c3390565b6001600160a01b0316826001600160a01b0316847f2f8788117e7eff1d82e926ec794901d17c78024a50270940304540a733656f0d60405160405180910390a45060016101c7565b505f5b92915050565b5f80604083850312156101de575f80fd5b82516001600160a01b03811681146101f4575f80fd5b6020939093015192949293505050565b608051610c166102315f395f81816102ac015281816103a60152818161048301526106270152610c165ff3fe6080604052600436106100dc575f3560e01c806391d148541161007c578063d0febe4c11610057578063d0febe4c14610241578063d547741f14610249578063f5b541a614610268578063fc0c546a1461029b575f80fd5b806391d14854146101fa578063a217fddf14610219578063cbdd69b51461022c575f80fd5b8063248a9ca3116100b7578063248a9ca3146101615780632f2ff15d1461019d57806336568abe146101bc57806356238b02146101db575f80fd5b806301ffc9a7146100ef57806306b091f9146101235780631b9a91a414610142575f80fd5b366100eb576100e96102e6565b005b5f80fd5b3480156100fa575f80fd5b5061010e610109366004610ab7565b610575565b60405190151581526020015b60405180910390f35b34801561012e575f80fd5b506100e961013d366004610af9565b6105ab565b34801561014d575f80fd5b506100e961015c366004610af9565b61071d565b34801561016c575f80fd5b5061018f61017b366004610b23565b5f9081526020819052604090206001015490565b60405190815260200161011a565b3480156101a8575f80fd5b506100e96101b7366004610b3a565b610834565b3480156101c7575f80fd5b506100e96101d6366004610b3a565b61085e565b3480156101e6575f80fd5b506100e96101f5366004610b23565b610896565b348015610205575f80fd5b5061010e610214366004610b3a565b610929565b348015610224575f80fd5b5061018f5f81565b348015610237575f80fd5b5061018f60015481565b6100e96102e6565b348015610254575f80fd5b506100e9610263366004610b3a565b610951565b348015610273575f80fd5b5061018f7f97667070c54ef182b0f5858b034beac1b6f3089aa2d3188bb1e8929f4fa9b92981565b3480156102a6575f80fd5b506102ce7f000000000000000000000000000000000000000000000000000000000000000081565b6040516001600160a01b03909116815260200161011a565b5f34116103295760405162461bcd60e51b815260206004820152600c60248201526b115512081c995c5d5a5c995960a21b60448201526064015b60405180910390fd5b5f670de0b6b3a7640000600154346103419190610b68565b61034b9190610b8b565b90505f811161038f5760405162461bcd60e51b815260206004820152601060248201526f105b5bdd5b9d081d1bdbc81cdb585b1b60821b6044820152606401610320565b6040516370a0823160e01b815230600482015281907f00000000000000000000000000000000000000000000000000000000000000006001600160a01b0316906370a0823190602401602060405180830381865afa1580156103f3573d5f803e3d5ffd5b505050506040513d601f19601f820116820180604052508101906104179190610baa565b10156104655760405162461bcd60e51b815260206004820152601760248201527f56656e646f72206f7574206f66206c69717569646974790000000000000000006044820152606401610320565b60405163a9059cbb60e01b8152336004820152602481018290525f907f00000000000000000000000000000000000000000000000000000000000000006001600160a01b03169063a9059cbb906044016020604051808303815f875af11580156104d1573d5f803e3d5ffd5b505050506040513d601f19601f820116820180604052508101906104f59190610bc1565b9050806105365760405162461bcd60e51b815260206004820152600f60248201526e151c985b9cd9995c8819985a5b1959608a1b6044820152606401610320565b604080513481526020810184905233917f8fafebcaf9d154343dad25669bfa277f4fbacd7ac6b0c4fed522580e040a0f33910160405180910390a25050565b5f6001600160e01b03198216637965db0b60e01b14806105a557506301ffc9a760e01b6001600160e01b03198316145b92915050565b5f6105b581610975565b6001600160a01b0383166105ff5760405162461bcd60e51b8152602060048201526011602482015270125b9d985b1a59081c9958da5c1a595b9d607a1b6044820152606401610320565b60405163a9059cbb60e01b81526001600160a01b038481166004830152602482018490525f917f00000000000000000000000000000000000000000000000000000000000000009091169063a9059cbb906044016020604051808303815f875af115801561066f573d5f803e3d5ffd5b505050506040513d601f19601f820116820180604052508101906106939190610bc1565b9050806106d45760405162461bcd60e51b815260206004820152600f60248201526e151c985b9cd9995c8819985a5b1959608a1b6044820152606401610320565b836001600160a01b03167f6352c5382c4a4578e712449ca65e83cdb392d045dfcf1cad9615189db2da244b8460405161070f91815260200190565b60405180910390a250505050565b5f61072781610975565b6001600160a01b0383166107715760405162461bcd60e51b8152602060048201526011602482015270125b9d985b1a59081c9958da5c1a595b9d607a1b6044820152606401610320565b814710156107b85760405162461bcd60e51b8152602060048201526014602482015273496e73756666696369656e742062616c616e636560601b6044820152606401610320565b6040516001600160a01b0384169083156108fc029084905f818181858888f193505050501580156107eb573d5f803e3d5ffd5b50826001600160a01b03167f8455ae6be5d92f1df1c3c1484388e247a36c7e60d72055ae216dbc258f257d4b8360405161082791815260200190565b60405180910390a2505050565b5f8281526020819052604090206001015461084e81610975565b6108588383610982565b50505050565b6001600160a01b03811633146108875760405163334bd91960e11b815260040160405180910390fd5b6108918282610a11565b505050565b5f6108a081610975565b5f82116108e75760405162461bcd60e51b815260206004820152601560248201527452617465206d75737420626520706f73697469766560581b6044820152606401610320565b60015460408051918252602082018490527fb38780ddde1f073d91c150de2696f3f7085883648ba21cc5ef01029cb21d1916910160405180910390a150600155565b5f918252602082815260408084206001600160a01b0393909316845291905290205460ff1690565b5f8281526020819052604090206001015461096b81610975565b6108588383610a11565b61097f8133610a7a565b50565b5f61098d8383610929565b610a0a575f838152602081815260408083206001600160a01b03861684529091529020805460ff191660011790556109c23390565b6001600160a01b0316826001600160a01b0316847f2f8788117e7eff1d82e926ec794901d17c78024a50270940304540a733656f0d60405160405180910390a45060016105a5565b505f6105a5565b5f610a1c8383610929565b15610a0a575f838152602081815260408083206001600160a01b0386168085529252808320805460ff1916905551339286917ff6391f5c32d9c69d2a47ea670b442974b53935d1edc7fd64eb21e047a839171b9190a45060016105a5565b610a848282610929565b610ab35760405163e2517d3f60e01b81526001600160a01b038216600482015260248101839052604401610320565b5050565b5f60208284031215610ac7575f80fd5b81356001600160e01b031981168114610ade575f80fd5b9392505050565b6001600160a01b038116811461097f575f80fd5b5f8060408385031215610b0a575f80fd5b8235610b1581610ae5565b946020939093013593505050565b5f60208284031215610b33575f80fd5b5035919050565b5f8060408385031215610b4b575f80fd5b823591506020830135610b5d81610ae5565b809150509250929050565b80820281158282048414176105a557634e487b7160e01b5f52601160045260245ffd5b5f82610ba557634e487b7160e01b5f52601260045260245ffd5b500490565b5f60208284031215610bba575f80fd5b5051919050565b5f60208284031215610bd1575f80fd5b81518015158114610ade575f80fdfea2646970667358221220e4d4d6bec7fd793c001b0f4d9b0959a7670b5662446aeaec9e7833fc8f8fe38664736f6c63430008140033",
  "linkReferences": {},
  "deployedLinkReferences": {},
  "immutableReferences": {
    "536": [
      {
        "length": 32,
        "start": 684
      },
      {
        "length": 32,
        "start": 934
      },
      {
        "length": 32,
        "start": 1155
      },
      {
        "length": 32,
        "start": 1575
      }
    ]
  },
  "inputSourceName": "project/contracts/TokenVendor.sol",
  "buildInfoId": "solc-0_8_20-2553935fe69bc30bdd350580aeaadb1d0ce839a3"
}