{
  "_format": "hh3-artifact-1",
  "contractName": "ERC20Token",
  "sourceName": "contracts/ERC20Token.sol",
  "abi": [
    {
      "inputs": [],
      "stateMutability": "nonpayable",
      "type": "constructor"
    },
    {
      "inputs": [
        {
          "internalType": "address",
          "name": "spender",
          "type": "address"
        },
        {
          "internalType": "uint256",
          "name": "allowance",
          "type": "uint256"
        },
        {
          "internalType": "uint256",
          "name": "needed",
          "type": "uint256"
        }
      ],
      "name": "ERC20InsufficientAllowance",
      "type": "error"
    },
    {
      "inputs": [
        {
          "internalType": "address",
          "name": "sender",
          "type": "address"
        },
        {
          "internalType": "uint256",
          "name": "balance",
          "type": "uint256"
        },
        {
          "internalType": "uint256",
          "name": "needed",
          "type": "uint256"
        }
      ],
      "name": "ERC20InsufficientBalance",
      "type": "error"
    },
    {
      "inputs": [
        {
          "internalType": "address",
          "name": "approver",
          "type": "address"
        }
      ],
      "name": "ERC20InvalidApprover",
      "type": "error"
    },
    {
      "inputs": [
        {
          "internalType": "address",
          "name": "receiver",
          "type": "address"
        }
      ],
      "name": "ERC20InvalidReceiver",
      "type": "error"
    },
    {
      "inputs": [
        {
          "internalType": "address",
          "name": "sender",
          "type": "address"
        }
      ],
      "name": "ERC20InvalidSender",
      "type": "error"
    },
    {
      "inputs": [
        {
          "internalType": "address",
          "name": "spender",
          "type": "address"
        }
      ],
      "name": "ERC20InvalidSpender",
      "type": "error"
    },
    {
      "inputs": [
        {
          "internalType": "address",
          "name": "owner",
          "type": "address"
        }
      ],
      "name": "OwnableInvalidOwner",
      "type": "error"
    },
    {
      "inputs": [
        {
          "internalType": "address",
          "name": "account",
          "type": "address"
        }
      ],
      "name": "OwnableUnauthorizedAccount",
      "type": "error"
    },
    {
      "anonymous": false,
      "inputs": [
        {
          "indexed": true,
          "internalType": "address",
          "name": "owner",
          "type": "address"
        },
        {
          "indexed": true,
          "internalType": "address",
          "name": "spender",
          "type": "address"
        },
        {
          "indexed": false,
          "internalType": "uint256",
          "name": "value",
          "type": "uint256"
        }
      ],
      "name": "Approval",
      "type": "event"
    },
    {
      "anonymous": false,
      "inputs": [
        {
          "indexed": true,
          "internalType": "address",
          "name": "previousOwner",
          "type": "address"
        },
        {
          "indexed": true,
          "internalType": "address",
          "name": "newOwner",
          "type": "address"
        }
      ],
      "name": "OwnershipTransferred",
      "type": "event"
    },
    {
      "anonymous": false,
      "inputs": [
        {
          "indexed": true,
          "internalType": "address",
          "name": "from",
          "type": "address"
        },
        {
          "indexed": true,
          "internalType": "address",
          "name": "to",
          "type": "address"
        },
        {
          "indexed": false,
          "internalType": "uint256",
          "name": "value",
          "type": "uint256"
        }
      ],
      "name": "Transfer",
      "type": "event"
    },
    {
      "inputs": [],
      "name": "TOTAL_SUPPLY",
      "outputs": [
        {
          "internalType": "uint256",
          "name": "",
          "type": "uint256"
        }
      ],
      "stateMutability": "view",
      "type": "function"
    },
    {
      "inputs": [
        {
          "internalType": "address",
          "name": "owner",
          "type": "address"
        },
        {
          "internalType": "address",
          "name": "spender",
          "type": "address"
        }
      ],
      "name": "allowance",
      "outputs": [
        {
          "internalType": "uint256",
          "name": "",
          "type": "uint256"
        }
      ],
      "stateMutability": "view",
      "type": "function"
    },
    {
      "inputs": [
        {
          "internalType": "address",
          "name": "spender",
          "type": "address"
        },
        {
          "internalType": "uint256",
          "name": "value",
          "type": "uint256"
        }
      ],
      "name": "approve",
      "outputs": [
        {
          "internalType": "bool",
          "name": "",
          "type": "bool"
        }
      ],
      "stateMutability": "nonpayable",
      "type": "function"
    },
    {
      "inputs": [
        {
          "internalType": "address",
          "name": "account",
          "type": "address"
        }
      ],
      "name": "balanceOf",
      "outputs": [
        {
          "internalType": "uint256",
          "name": "",
          "type": "uint256"
        }
      ],
      "stateMutability": "view",
      "type": "function"
    },
    {
      "inputs": [],
      "name": "decimals",
      "outputs": [
        {
          "internalType": "uint8",
          "name": "",
          "type": "uint8"
        }
      ],
      "stateMutability": "view",
      "type": "function"
    },
    {
      "inputs": [
        {
          "internalType": "address",
          "name": "to",
          "type": "address"
        },
        {
          "internalType": "uint256",
          "name": "amount",
          "type": "uint256"
        }
      ],
      "name": "mint",
      "outputs": [],
      "stateMutability": "nonpayable",
      "type": "function"
    },
    {
      "inputs": [],
      "name": "name",
      "outputs": [
        {
          "internalType": "string",
          "name": "",
          "type": "string"
        }
      ],
      "stateMutability": "view",
      "type": "function"
    },
    {
      "inputs": [],
      "name": "owner",
      "outputs": [
        {
          "internalType": "address",
          "name": "",
          "type": "address"
        }
      ],
      "stateMutability": "view",
      "type": "function"
    },
    {
      "inputs": [],
      "name": "renounceOwnership",
      "outputs": [],
      "stateMutability": "nonpayable",
      "type": "function"
    },
    {
      "inputs": [],
      "name": "symbol",
      "outputs": [
        {
          "internalType": "string",
          "name": "",
          "type": "string"
        }
      ],
      "stateMutability": "view",
      "type": "function"
    },
    {
      "inputs": [],
      "name": "totalSupply",
      "outputs": [
        {
          "internalType": "uint256",
          "name": "",
          "type": "uint256"
        }
      ],
      "stateMutability": "view",
      "type": "function"
    },
    {
      "inputs": [
        {
          "internalType": "address",
          "name": "to",
          "type": "address"
        },
        {
          "internalType": "uint256",
          "name": "value",
          "type": "uint256"
        }
      ],
      "name": "transfer",
      "outputs": [
        {
          "internalType": "bool",
          "name": "",
          "type": "bool"
        }
      ],
      "stateMutability": "nonpayable",
      "type": "function"
    },
    {
      "inputs": [
        {
          "internalType": "address",
          "name": "from",
          "type": "address"
        },
        {
          "internalType": "address",
          "name": "to",
          "type": "address"
        },
        {
          "internalType": "uint256",
          "name": "value",
          "type": "uint256"
        }
      ],
      "name": "transferFrom",
      "outputs": [
        {
          "internalType": "bool",
          "name": "",
          "type": "bool"
        }
      ],
      "stateMutability": "nonpayable",
      "type": "function"
    },
    {
      "inputs": [
        {
          "internalType": "address",
          "name": "newOwner",
          "type": "address"
        }
      ],
      "name": "transferOwnership",
      "outputs": [],
      "stateMutability": "nonpayable",
      "type": "function"
    }
  ],
  "bytecode": "0x608060405234801562000010575f80fd5b5033604051806040016040528060098152602001682237b733aa37b5b2b760b91b8152506040518060400160405280600381526020016244544b60e81b815250816003908162000061919062000327565b50600462000070828262000327565b5050506001600160a01b038116620000a257604051631e4fbdf760e01b81525f60048201526024015b60405180910390fd5b620000ad81620000cb565b50620000c5336a084595161401484a0000006200011c565b62000415565b600580546001600160a01b038381166001600160a01b0319831681179093556040519116919082907f8be0079c531659141344cd1fd0a4f28419497f9722a3daafe3b4186f6b6457e0905f90a35050565b6001600160a01b038216620001475760405163ec442f0560e01b81525f600482015260240162000099565b620001545f838362000158565b5050565b6001600160a01b03831662000186578060025f8282546200017a9190620003ef565b90915550620001f89050565b6001600160a01b0383165f9081526020819052604090205481811015620001da5760405163391434e360e21b81526001600160a01b0385166004820152602481018290526044810183905260640162000099565b6001600160a01b0384165f9081526020819052604090209082900390555b6001600160a01b038216620002165760028054829003905562000234565b6001600160a01b0382165f9081526020819052604090208054820190555b816001600160a01b0316836001600160a01b03167fddf252ad1be2c89b69c2b068fc378daa952ba7f163c4a11628f55a4df523b3ef836040516200027a91815260200190565b60405180910390a3505050565b634e487b7160e01b5f52604160045260245ffd5b600181811c90821680620002b057607f821691505b602082108103620002cf57634e487b7160e01b5f52602260045260245ffd5b50919050565b601f82111562000322575f81815260208120601f850160051c81016020861015620002fd5750805b601f850160051c820191505b818110156200031e5782815560010162000309565b5050505b505050565b81516001600160401b0381111562000343576200034362000287565b6200035b816200035484546200029b565b84620002d5565b602080601f83116001811462000391575f8415620003795750858301515b5f19600386901b1c1916600185901b1785556200031e565b5f85815260208120601f198616915b82811015620003c157888601518255948401946001909101908401620003a0565b5085821015620003df57878501515f19600388901b60f8161c191681555b5050505050600190811b01905550565b808201808211156200040f57634e487b7160e01b5f52601160045260245ffd5b92915050565b6108c280620004235f395ff3fe608060405234801561000f575f80fd5b50600436106100e5575f3560e01c8063715018a61161008857806395d89b411161006357806395d89b41146101d0578063a9059cbb146101d8578063dd62ed3e146101eb578063f2fde38b14610223575f80fd5b8063715018a61461019b5780638da5cb5b146101a3578063902d55a5146101be575f80fd5b806323b872dd116100c357806323b872dd1461013c578063313ce5671461014f57806340c10f191461015e57806370a0823114610173575f80fd5b806306fdde03146100e9578063095ea7b31461010757806318160ddd1461012a575b5f80fd5b6100f1610236565b6040516100fe919061071d565b60405180910390f35b61011a610115366004610783565b6102c6565b60405190151581526020016100fe565b6002545b6040519081526020016100fe565b61011a61014a3660046107ab565b6102df565b604051601281526020016100fe565b61017161016c366004610783565b610302565b005b61012e6101813660046107e4565b6001600160a01b03165f9081526020819052604090205490565b610171610318565b6005546040516001600160a01b0390911681526020016100fe565b61012e6a084595161401484a00000081565b6100f161032b565b61011a6101e6366004610783565b61033a565b61012e6101f9366004610804565b6001600160a01b039182165f90815260016020908152604080832093909416825291909152205490565b6101716102313660046107e4565b610347565b60606003805461024590610835565b80601f016020809104026020016040519081016040528092919081815260200182805461027190610835565b80156102bc5780601f10610293576101008083540402835291602001916102bc565b820191905f5260205f20905b81548152906001019060200180831161029f57829003601f168201915b5050505050905090565b5f336102d3818585610389565b60019150505b92915050565b5f336102ec85828561039b565b6102f7858585610416565b506001949350505050565b61030a610473565b61031482826104a0565b5050565b610320610473565b6103295f6104d4565b565b60606004805461024590610835565b5f336102d3818585610416565b61034f610473565b6001600160a01b03811661037d57604051631e4fbdf760e01b81525f60048201526024015b60405180910390fd5b610386816104d4565b50565b6103968383836001610525565b505050565b6001600160a01b038381165f908152600160209081526040808320938616835292905220545f198114610410578181101561040257604051637dc7a0d960e11b81526001600160a01b03841660048201526024810182905260448101839052606401610374565b61041084848484035f610525565b50505050565b6001600160a01b03831661043f57604051634b637e8f60e11b81525f6004820152602401610374565b6001600160a01b0382166104685760405163ec442f0560e01b81525f6004820152602401610374565b6103968383836105f7565b6005546001600160a01b031633146103295760405163118cdaa760e01b8152336004820152602401610374565b6001600160a01b0382166104c95760405163ec442f0560e01b81525f6004820152602401610374565b6103145f83836105f7565b600580546001600160a01b038381166001600160a01b0319831681179093556040519116919082907f8be0079c531659141344cd1fd0a4f28419497f9722a3daafe3b4186f6b6457e0905f90a35050565b6001600160a01b03841661054e5760405163e602df0560e01b81525f6004820152602401610374565b6001600160a01b03831661057757604051634a1406b160e11b81525f6004820152602401610374565b6001600160a01b038085165f908152600160209081526040808320938716835292905220829055801561041057826001600160a01b0316846001600160a01b03167f8c5be1e5ebec7d5bd14f71427d1e84f3dd0314c0f7b2291e5b200ac8c7c3b925846040516105e991815260200190565b60405180910390a350505050565b6001600160a01b038316610621578060025f828254610616919061086d565b909155506106919050565b6001600160a01b0383165f90815260208190526040902054818110156106735760405163391434e360e21b81526001600160a01b03851660048201526024810182905260448101839052606401610374565b6001600160a01b0384165f9081526020819052604090209082900390555b6001600160a01b0382166106ad576002805482900390556106cb565b6001600160a01b0382165f9081526020819052604090208054820190555b816001600160a01b0316836001600160a01b03167fddf252ad1be2c89b69c2b068fc378daa952ba7f163c4a11628f55a4df523b3ef8360405161071091815260200190565b60405180910390a3505050565b5f6020808352835180828501525f5b818110156107485785810183015185820160400152820161072c565b505f604082860101526040601f19601f8301168501019250505092915050565b80356001600160a01b038116811461077e575f80fd5b919050565b5f8060408385031215610794575f80fd5b61079d83610768565b946020939093013593505050565b5f805f606084860312156107bd575f80fd5b6107c684610768565b92506107d460208501610768565b9150604084013590509250925092565b5f602082840312156107f4575f80fd5b6107fd82610768565b9392505050565b5f8060408385031215610815575f80fd5b61081e83610768565b915061082c60208401610768565b90509250929050565b600181811c9082168061084957607f821691505b60208210810361086757634e487b7160e01b5f52602260045260245ffd5b50919050565b808201808211156102d957634e487b7160e01b5f52601160045260245ffdfea26469706673582212207a00c42fb584ab6545bef4fd64f5da226ff45c6f6eb5ce9553d76c7d9f2deb3364736f6c63430008140033",
  "linkReferences": {},
  "deployedLinkReferences": {},
  "immutableReferences": {},
  "inputSourceName": "project/contracts/ERC20Token.sol",
  "buildInfoId": "solc-0_8_20-efc560786130b41bd39ca0684e45caf729309c39"
}