{
  "_format": "hh3-artifact-1",
  "contractName": "Marketplace",
  "sourceName": "contracts/Marketplace.sol",
  "abi": [
    {
      "inputs": [
        {
          "internalType": "address",
          "name": "_gameToken",
          "type": "address"
        },
        {
          "internalType": "address",
          "name": "_nftCollection",
          "type": "address"
        }
      ],
      "stateMutability": "nonpayable",
      "type": "constructor"
    },
    {
      "inputs": [],
      "name": "AccessControlBadConfirmation",
      "type": "error"
    },
    {
      "inputs": [
        {
          "internalType": "address",
          "name": "account",
          "type": "address"
        },
        {
          "internalType": "bytes32",
          "name": "neededRole",
          "type": "bytes32"
        }
      ],
      "name": "AccessControlUnauthorizedAccount",
      "type": "error"
    },
    {
      "anonymous": false,
      "inputs": [
        {
          "indexed": true,
          "internalType": "uint256",
          "name": "tokenId",
          "type": "uint256"
        },
        {
          "indexed": true,
          "internalType": "address",
          "name": "seller",
          "type": "address"
        },
        {
          "indexed": false,
          "internalType": "uint256",
          "name": "price",
          "type": "uint256"
        }
      ],
      "name": "Listed",
      "type": "event"
    },
    {
      "anonymous": false,
      "inputs": [
        {
          "indexed": true,
          "internalType": "uint256",
          "name": "tokenId",
          "type": "uint256"
        },
        {
          "indexed": true,
          "internalType": "address",
          "name": "seller",
          "type": "address"
        }
      ],
      "name": "ListingCancelled",
      "type": "event"
    },
    {
      "anonymous": false,
      "inputs": [
        {
          "indexed": true,
          "internalType": "bytes32",
          "name": "role",
          "type": "bytes32"
        },
        {
          "indexed": true,
          "internalType": "bytes32",
          "name": "previousAdminRole",
          "type": "bytes32"
        },
        {
          "indexed": true,
          "internalType": "bytes32",
          "name": "newAdminRole",
          "type": "bytes32"
        }
      ],
      "name": "RoleAdminChanged",
      "type": "event"
    },
    {
      "anonymous": false,
      "inputs": [
        {
          "indexed": true,
          "internalType": "bytes32",
          "name": "role",
          "type": "bytes32"
        },
        {
          "indexed": true,
          "internalType": "address",
          "name": "account",
          "type": "address"
        },
        {
          "indexed": true,
          "internalType": "address",
          "name": "sender",
          "type": "address"
        }
      ],
      "name": "RoleGranted",
      "type": "event"
    },
    {
      "anonymous": false,
      "inputs": [
        {
          "indexed": true,
          "internalType": "bytes32",
          "name": "role",
          "type": "bytes32"
        },
        {
          "indexed": true,
          "internalType": "address",
          "name": "account",
          "type": "address"
        },
        {
          "indexed": true,
          "internalType": "address",
          "name": "sender",
          "type": "address"
        }
      ],
      "name": "RoleRevoked",
      "type": "event"
    },
    {
      "anonymous": false,
      "inputs": [
        {
          "indexed": true,
          "internalType": "uint256",
          "name": "tokenId",
          "type": "uint256"
        },
        {
          "indexed": true,
          "internalType": "address",
          "name": "seller",
          "type": "address"
        },
        {
          "indexed": true,
          "internalType": "address",
          "name": "buyer",
          "type": "address"
        },
        {
          "indexed": false,
          "internalType": "uint256",
          "name": "price",
          "type": "uint256"
        }
      ],
      "name": "Sold",
      "type": "event"
    },
    {
      "inputs": [],
      "name": "ADMIN_ROLE",
      "outputs": [
        {
          "internalType": "bytes32",
          "name": "",
          "type": "bytes32"
        }
      ],
      "stateMutability": "view",
      "type": "function"
    },
    {
      "inputs": [],
      "name": "DEFAULT_ADMIN_ROLE",
      "outputs": [
        {
          "internalType": "bytes32",
          "name": "",
          "type": "bytes32"
        }
      ],
      "stateMutability": "view",
      "type": "function"
    },
    {
      "inputs": [],
      "name": "PLATFORM_FEE_RATE",
      "outputs": [
        {
          "internalType": "uint256",
          "name": "",
          "type": "uint256"
        }
      ],
      "stateMutability": "view",
      "type": "function"
    },
    {
      "inputs": [
        {
          "internalType": "uint256",
          "name": "tokenId",
          "type": "uint256"
        }
      ],
      "name": "buyCard",
      "outputs": [],
      "stateMutability": "nonpayable",
      "type": "function"
    },
    {
      "inputs": [
        {
          "internalType": "uint256",
          "name": "tokenId",
          "type": "uint256"
        }
      ],
      "name": "cancelListing",
      "outputs": [],
      "stateMutability": "nonpayable",
      "type": "function"
    },
    {
      "inputs": [],
      "name": "gameToken",
      "outputs": [
        {
          "internalType": "contract ERC20Token",
          "name": "",
          "type": "address"
        }
      ],
      "stateMutability": "view",
      "type": "function"
    },
    {
      "inputs": [
        {
          "internalType": "uint256",
          "name": "tokenId",
          "type": "uint256"
        }
      ],
      "name": "getListing",
      "outputs": [
        {
          "components": [
            {
              "internalType": "address",
              "name": "seller",
              "type": "address"
            },
            {
              "internalType": "uint256",
              "name": "price",
              "type": "uint256"
            },
            {
              "internalType": "bool",
              "name": "active",
              "type": "bool"
            }
          ],
          "internalType": "struct Marketplace.Listing",
          "name": "",
          "type": "tuple"
        }
      ],
      "stateMutability": "view",
      "type": "function"
    },
    {
      "inputs": [
        {
          "internalType": "bytes32",
          "name": "role",
          "type": "bytes32"
        }
      ],
      "name": "getRoleAdmin",
      "outputs": [
        {
          "internalType": "bytes32",
          "name": "",
          "type": "bytes32"
        }
      ],
      "stateMutability": "view",
      "type": "function"
    },
    {
      "inputs": [
        {
          "internalType": "bytes32",
          "name": "role",
          "type": "bytes32"
        },
        {
          "internalType": "address",
          "name": "account",
          "type": "address"
        }
      ],
      "name": "grantRole",
      "outputs": [],
      "stateMutability": "nonpayable",
      "type": "function"
    },
    {
      "inputs": [
        {
          "internalType": "bytes32",
          "name": "role",
          "type": "bytes32"
        },
        {
          "internalType": "address",
          "name": "account",
          "type": "address"
        }
      ],
      "name": "hasRole",
      "outputs": [
        {
          "internalType": "bool",
          "name": "",
          "type": "bool"
        }
      ],
      "stateMutability": "view",
      "type": "function"
    },
    {
      "inputs": [
        {
          "internalType": "uint256",
          "name": "tokenId",
          "type": "uint256"
        }
      ],
      "name": "isListed",
      "outputs": [
        {
          "internalType": "bool",
          "name": "",
          "type": "bool"
        }
      ],
      "stateMutability": "view",
      "type": "function"
    },
    {
      "inputs": [
        {
          "internalType": "uint256",
          "name": "tokenId",
          "type": "uint256"
        },
        {
          "internalType": "uint256",
          "name": "price",
          "type": "uint256"
        }
      ],
      "name": "listCard",
      "outputs": [],
      "stateMutability": "nonpayable",
      "type": "function"
    },
    {
      "inputs": [
        {
          "internalType": "uint256",
          "name": "",
          "type": "uint256"
        }
      ],
      "name": "listings",
      "outputs": [
        {
          "internalType": "address",
          "name": "seller",
          "type": "address"
        },
        {
          "internalType": "uint256",
          "name": "price",
          "type": "uint256"
        },
        {
          "internalType": "bool",
          "name": "active",
          "type": "bool"
        }
      ],
      "stateMutability": "view",
      "type": "function"
    },
    {
      "inputs": [],
      "name": "nftCollection",
      "outputs": [
        {
          "internalType": "contract NFTCollection",
          "name": "",
          "type": "address"
        }
      ],
      "stateMutability": "view",
      "type": "function"
    },
    {
      "inputs": [
        {
          "internalType": "bytes32",
          "name": "role",
          "type": "bytes32"
        },
        {
          "internalType": "address",
          "name": "callerConfirmation",
          "type": "address"
        }
      ],
      "name": "renounceRole",
      "outputs": [],
      "stateMutability": "nonpayable",
      "type": "function"
    },
    {
      "inputs": [
        {
          "internalType": "bytes32",
          "name": "role",
          "type": "bytes32"
        },
        {
          "internalType": "address",
          "name": "account",
          "type": "address"
        }
      ],
      "name": "revokeRole",
      "outputs": [],
      "stateMutability": "nonpayable",
      "type": "function"
    },
    {
      "inputs": [
        {
          "internalType": "bytes4",
          "name": "interfaceId",
          "type": "bytes4"
        }
      ],
      "name": "supportsInterface",
      "outputs": [
        {
          "internalType": "bool",
          "name": "",
          "type": "bool"
        }
      ],
      "stateMutability": "view",
      "type": "function"
    },
    {
      "inputs": [],
      "name": "withdrawPlatformFees",
      "outputs": [],
      "stateMutability": "nonpayable",
      "type": "function"
    }
  ],
  "bytecode": "0x60c060405234801562000010575f80fd5b50604051620013e6380380620013e68339810160408190526200003391620001b6565b6001600160a01b038216158015906200005457506001600160a01b03811615155b620000995760405162461bcd60e51b8152602060048201526011602482015270496e76616c69642061646472657373657360781b604482015260640160405180910390fd5b6001600160a01b03808316608052811660a052620000b85f33620000ee565b50620000e57fa49807205ce4d355092ef5a8a18f56e8913cf4a201fbe287825b095693c2177533620000ee565b505050620001ec565b5f828152602081815260408083206001600160a01b038516845290915281205460ff1662000191575f838152602081815260408083206001600160a01b03861684529091529020805460ff19166001179055620001483390565b6001600160a01b0316826001600160a01b0316847f2f8788117e7eff1d82e926ec794901d17c78024a50270940304540a733656f0d60405160405180910390a450600162000194565b505f5b92915050565b80516001600160a01b0381168114620001b1575f80fd5b919050565b5f8060408385031215620001c8575f80fd5b620001d3836200019a565b9150620001e3602084016200019a565b90509250929050565b60805160a051611192620002545f395f818161024a0152818161095901528181610b8f01528181610c5a0152610cee01525f81816102ca01528181610678015281816107430152818161081d015281816108be01528181610a490152610ad901526111925ff3fe608060405234801561000f575f80fd5b5060043610610111575f3560e01c806391d148541161009e578063d0b7830b1161006e578063d0b7830b146102ff578063d547741f14610307578063de74e57b1461031a578063ed36c52f1461037d578063fcce488314610390575f80fd5b806391d14854146102ab578063a217fddf146102be578063c3dfdae6146102c5578063c70f5eaa146102ec575f80fd5b80632f2ff15d116100e45780632f2ff15d1461020a578063305a67a81461021f57806336568abe146102325780636588103b1461024557806375b238fc14610284575f80fd5b806301ffc9a714610115578063107a274a1461013d578063248a9ca3146101d25780632930fa4914610202575b5f80fd5b610128610123366004611007565b6103b5565b60405190151581526020015b60405180910390f35b6101a561014b366004611035565b60408051606080820183525f80835260208084018290529284018190529384526001808352938390208351918201845280546001600160a01b03168252938401549181019190915260029092015460ff1615159082015290565b6040805182516001600160a01b031681526020808401519082015291810151151590820152606001610134565b6101f46101e0366004611035565b5f9081526020819052604090206001015490565b604051908152602001610134565b6101f4600581565b61021d610218366004611060565b6103eb565b005b61021d61022d366004611035565b610415565b61021d610240366004611060565b610526565b61026c7f000000000000000000000000000000000000000000000000000000000000000081565b6040516001600160a01b039091168152602001610134565b6101f47fa49807205ce4d355092ef5a8a18f56e8913cf4a201fbe287825b095693c2177581565b6101286102b9366004611060565b61055e565b6101f45f81565b61026c7f000000000000000000000000000000000000000000000000000000000000000081565b61021d6102fa366004611035565b610586565b61021d610a08565b61021d610315366004611060565b610b4b565b610356610328366004611035565b600160208190525f91825260409091208054918101546002909101546001600160a01b039092169160ff1683565b604080516001600160a01b0390941684526020840192909252151590820152606001610134565b61021d61038b36600461108e565b610b6f565b61012861039e366004611035565b5f9081526001602052604090206002015460ff1690565b5f6001600160e01b03198216637965db0b60e01b14806103e557506301ffc9a760e01b6001600160e01b03198316145b92915050565b5f8281526020819052604090206001015461040581610ec5565b61040f8383610ed2565b50505050565b5f818152600160205260409020600281015460ff166104705760405162461bcd60e51b81526020600482015260126024820152714c697374696e67206e6f742061637469766560701b60448201526064015b60405180910390fd5b80546001600160a01b03163314806104ad57506104ad7fa49807205ce4d355092ef5a8a18f56e8913cf4a201fbe287825b095693c217753361055e565b6104ea5760405162461bcd60e51b815260206004820152600e60248201526d139bdd08185d5d1a1bdc9a5e995960921b6044820152606401610467565b60028101805460ff19169055604051339083907f8e25282255ab31897df2b0456bb993ac7f84d376861aefd84901d2d63a7428a2905f90a35050565b6001600160a01b038116331461054f5760405163334bd91960e11b815260040160405180910390fd5b6105598282610f61565b505050565b5f918252602082815260408084206001600160a01b0393909316845291905290205460ff1690565b5f818152600160205260409020600281015460ff166105dc5760405162461bcd60e51b81526020600482015260126024820152714c697374696e67206e6f742061637469766560701b6044820152606401610467565b8054336001600160a01b039091160361062c5760405162461bcd60e51b815260206004820152601260248201527110d85b9b9bdd08189d5e481bdddb8813919560721b6044820152606401610467565b60018101545f606461063f6005846110c2565b61064991906110d9565b90505f61065682846110f8565b6040516370a0823160e01b815233600482015290915083906001600160a01b037f000000000000000000000000000000000000000000000000000000000000000016906370a0823190602401602060405180830381865afa1580156106bd573d5f803e3d5ffd5b505050506040513d601f19601f820116820180604052508101906106e1919061110b565b10156107265760405162461bcd60e51b8152602060048201526014602482015273496e73756666696369656e742062616c616e636560601b6044820152606401610467565b604051636eb1769f60e11b815233600482015230602482015283907f00000000000000000000000000000000000000000000000000000000000000006001600160a01b03169063dd62ed3e90604401602060405180830381865afa158015610790573d5f803e3d5ffd5b505050506040513d601f19601f820116820180604052508101906107b4919061110b565b10156107fb5760405162461bcd60e51b8152602060048201526016602482015275496e73756666696369656e7420616c6c6f77616e636560501b6044820152606401610467565b6040516323b872dd60e01b8152336004820152306024820152604481018390527f00000000000000000000000000000000000000000000000000000000000000006001600160a01b0316906323b872dd906064016020604051808303815f875af115801561086b573d5f803e3d5ffd5b505050506040513d601f19601f8201168201806040525081019061088f9190611122565b5083546040516323b872dd60e01b81523360048201526001600160a01b039182166024820152604481018390527f0000000000000000000000000000000000000000000000000000000000000000909116906323b872dd906064016020604051808303815f875af1158015610906573d5f803e3d5ffd5b505050506040513d601f19601f8201168201806040525081019061092a9190611122565b5083546040516323b872dd60e01b81526001600160a01b039182166004820152336024820152604481018790527f0000000000000000000000000000000000000000000000000000000000000000909116906323b872dd906064015f604051808303815f87803b15801561099c575f80fd5b505af11580156109ae573d5f803e3d5ffd5b5050505060028401805460ff19169055835460405184815233916001600160a01b03169087907f23f50d55776d8003622a982ade45a6c7f083116c8dbbcd980f59942f440badb19060200160405180910390a45050505050565b7fa49807205ce4d355092ef5a8a18f56e8913cf4a201fbe287825b095693c21775610a3281610ec5565b6040516370a0823160e01b81523060048201525f907f00000000000000000000000000000000000000000000000000000000000000006001600160a01b0316906370a0823190602401602060405180830381865afa158015610a96573d5f803e3d5ffd5b505050506040513d601f19601f82011682018060405250810190610aba919061110b565b60405163a9059cbb60e01b8152336004820152602481018290529091507f00000000000000000000000000000000000000000000000000000000000000006001600160a01b03169063a9059cbb906044016020604051808303815f875af1158015610b27573d5f803e3d5ffd5b505050506040513d601f19601f820116820180604052508101906105599190611122565b5f82815260208190526040902060010154610b6581610ec5565b61040f8383610f61565b6040516331a9108f60e11b81526004810183905233906001600160a01b037f00000000000000000000000000000000000000000000000000000000000000001690636352211e90602401602060405180830381865afa158015610bd4573d5f803e3d5ffd5b505050506040513d601f19601f82011682018060405250810190610bf89190611141565b6001600160a01b031614610c3a5760405162461bcd60e51b81526020600482015260096024820152682737ba1037bbb732b960b91b6044820152606401610467565b60405163020604bf60e21b81526004810183905230906001600160a01b037f0000000000000000000000000000000000000000000000000000000000000000169063081812fc90602401602060405180830381865afa158015610c9f573d5f803e3d5ffd5b505050506040513d601f19601f82011682018060405250810190610cc39190611141565b6001600160a01b03161480610d5f575060405163e985e9c560e01b81523360048201523060248201527f00000000000000000000000000000000000000000000000000000000000000006001600160a01b03169063e985e9c590604401602060405180830381865afa158015610d3b573d5f803e3d5ffd5b505050506040513d601f19601f82011682018060405250810190610d5f9190611122565b610d9a5760405162461bcd60e51b815260206004820152600c60248201526b139bdd08185c1c1c9bdd995960a21b6044820152606401610467565b5f8111610ddd5760405162461bcd60e51b815260206004820152601160248201527005072696365206d757374206265203e203607c1b6044820152606401610467565b5f8281526001602052604090206002015460ff1615610e2f5760405162461bcd60e51b815260206004820152600e60248201526d105b1c9958591e481b1a5cdd195960921b6044820152606401610467565b6040805160608101825233808252602080830185815260018486018181525f898152828552879020955186546001600160a01b0319166001600160a01b03909116178655915190850155516002909301805460ff191693151593909317909255915183815284917f50955776c5778c3b7d968d86d8c51fb6b29a7a74c20866b533268e209fc08343910160405180910390a35050565b610ecf8133610fca565b50565b5f610edd838361055e565b610f5a575f838152602081815260408083206001600160a01b03861684529091529020805460ff19166001179055610f123390565b6001600160a01b0316826001600160a01b0316847f2f8788117e7eff1d82e926ec794901d17c78024a50270940304540a733656f0d60405160405180910390a45060016103e5565b505f6103e5565b5f610f6c838361055e565b15610f5a575f838152602081815260408083206001600160a01b0386168085529252808320805460ff1916905551339286917ff6391f5c32d9c69d2a47ea670b442974b53935d1edc7fd64eb21e047a839171b9190a45060016103e5565b610fd4828261055e565b6110035760405163e2517d3f60e01b81526001600160a01b038216600482015260248101839052604401610467565b5050565b5f60208284031215611017575f80fd5b81356001600160e01b03198116811461102e575f80fd5b9392505050565b5f60208284031215611045575f80fd5b5035919050565b6001600160a01b0381168114610ecf575f80fd5b5f8060408385031215611071575f80fd5b8235915060208301356110838161104c565b809150509250929050565b5f806040838503121561109f575f80fd5b50508035926020909101359150565b634e487b7160e01b5f52601160045260245ffd5b80820281158282048414176103e5576103e56110ae565b5f826110f357634e487b7160e01b5f52601260045260245ffd5b500490565b818103818111156103e5576103e56110ae565b5f6020828403121561111b575f80fd5b5051919050565b5f60208284031215611132575f80fd5b8151801515811461102e575f80fd5b5f60208284031215611151575f80fd5b815161102e8161104c56fea2646970667358221220578f423ab91116f69d2b2844961b5e7587eafdcf681d48f3825d281f2e2d269764736f6c63430008140033",
  "linkReferences": {},
  "deployedLinkReferences": {},
  "immutableReferences": {
    "4156": [
      {
        "length": 32,
        "start": 714
      },
      {
        "length": 32,
        "start": 1656
      },
      {
        "length": 32,
        "start": 1859
      },
      {
        "length": 32,
        "start": 2077
      },
      {
        "length": 32,
        "start": 2238
      },
      {
        "length": 32,
        "start": 2633
      },
      {
        "length": 32,
        "start": 2777
      }
    ],
    "4159": [
      {
        "length": 32,
        "start": 586
      },
      {
        "length": 32,
        "start": 2393
      },
      {
        "length": 32,
        "start": 2959
      },
      {
        "length": 32,
        "start": 3162
      },
      {
        "length": 32,
        "start": 3310
      }
    ]
  },
  "inputSourceName": "project/contracts/Marketplace.sol",
  "buildInfoId": "solc-0_8_20-839501252c24007913f4cf9c3715bc7fee286bd0"
}